:020000040800F2
:10000000002800209D1200083D0C0008430C000849
:10001000490C00084F0C0008550C000800000000B7
:100020000000000000000000000000005B0C000861
:10003000670C000800000000730C00087F0C00082B
:10004000E5120008E5120008E5120008E5120008B4
:10005000E5120008E5120008E5120008E5120008A4
:10006000E5120008E5120008E5120008E512000894
:10007000E5120008E5120008E5120008E512000884
:10008000E5120008E5120008E5120008E512000874
:10009000E5120008E5120008E5120008E512000864
:1000A000E5120008E5120008E5120008E512000854
:1000B0008D0C0008E512000800000000E5120008A1
:1000C000E51200080000000000000000E512000832
:1000D00000000000E5120008E51200080000000022
:1000E000E5120008E5120008E51200080000000013
:1000F0000000000000000000000000000000000000
:0C01000000000000000000005FF808F1A3
:10010C0010B5054C237833B9044B13B10448AFF345
:10011C0000800123237010BDC800002000000000E7
:10012C003429000808B5034B1BB103490348AFF34E
:10013C00008008BD00000000CC000020342900081D
:10014C0080B483B000AF7860094A7B6852F82330E2
:10015C00012B06D1064A7B68002142F823100123AB
:10016C0000E0002318460C37BD4680BC704700BF2A
:10017C00E400002080B483B000AF7860044A7B6850
:10018C00012142F8231000BF0C37BD4680BC7047DC
:10019C00E400002080B582B000AF7860374A7B68FD
:1001AC0052F8232036497B6841F82320354A7B6876
:1001BC0052F8232031497B6841F82320324A7B686E
:1001CC0052F8232031497B6831F813301946104618
:1001DC0001F070FB034619462A4A7B6842F823104B
:1001EC00274A7B6852F8232024497B6851F8233036
:1001FC009A423FD1214A7B6852F8232021497B68DF
:10020C0051F823309A4235D1214A7B6852F8232089
:10021C001C497B6851F823309A4217D0194A7B68E5
:10022C0052F823201A497B6841F82320154A7B6831
:10023C0052F82330002B1DD17868FFF79BFF154A2D
:10024C007B684FF4FA7142F8231013E0114A7B6873
:10025C0052F823305A1E0F497B6841F823200D4A6F
:10026C007B6852F82330002B04DC094A7B6801219F
:10027C0042F8231000BF0837BD4680BD280000207F
:10028C001800002038000020000000201000002082
:10029C00480000205800002080B483B000AF786084
:1002AC007B68012B02D1054B1B6801E0044B1B68DA
:1002BC0018460C37BD4680BC704700BFAC00002010
:1002CC00A400002080B582B000AF7860594A7B68EA
:1002DC0052F82330013B162B00F2A18001A252F8F8
:1002EC0023F000BF4D0300082B0400082B0400086A
:1002FC002B0400082B0400082B0400082B04000816
:10030C002B0400082B0400082B0400082B04000805
:10031C002B0400082B0400082B0400082B040008F5
:10032C002B0400082B0400082B0400082B040008E5
:10033C002B0400087D030008F1030008B703000834
:10034C000C21786800F0ACFC3B4A7B6852F8232007
:10035C0038497B6841F823207868FFF79DFF0346F6
:10036C00642202FB03F31946786800F0CBFB5DE0D6
:10037C001521786800F094FC304A7B6852F82330E1
:10038C00002B4ED02E4B1B680D2B4AD0294A7B6874
:10039C00172142F823102B4B1B68642202FB03F33A
:1003AC001946786800F0AEFB3BE01721786800F046
:1003BC0077FC224A7B6852F82330002B33D0204B39
:1003CC001B680D2B2FD01B4A7B68162142F823107B
:1003DC001D4B1B68642202FB03F31946786800F07E
:1003EC0091FB20E01621786800F05AFC134A7B68D8
:1003FC0052F82330002B18D0114B1B680D2B14D046
:10040C000C4A7B68152142F82310104B1B686422A0
:10041C0002FB03F31946786800F074FB05E000BF9B
:10042C0004E000BF02E000BF00E000BF00BF0837DF
:10043C00BD4680BD980000206800002058010020B7
:10044C00A0000020AC000020A8000020A400002088
:10045C0080B483B000AF7860134A7B6852F82330C5
:10046C005A1C11497B6841F823207B6801339A00A0
:10047C000D497B6851F823309A4205DC7B689A0061
:10048C0009497B6841F82320074A7B6852F82330DE
:10049C00064A52F8232006497B6841F8232000BF06
:1004AC000C37BD4680BC70479000002070000020C7
:1004BC009800002080B483B000AF7860144A7B6849
:1004CC0052F823305A1E12497B6841F82320104AF7
:1004DC007B6852F823207B689B009A4207DA7B6882
:1004EC0001339B005A1E0A497B6841F82320084AB5
:1004FC007B6852F82330074A52F8232006497B6860
:10050C0041F8232000BF0C37BD4680BC704700BFAC
:10051C0090000020700000209800002080B584B06E
:10052C0000AFF860B9607A600F4ABB6813600F4A7D
:10053C007B6813600D4A7B6853600C4A7B68936040
:10054C000C21002000F0ACFB0C21012000F0A8FBDA
:10055C00074AFB6813601921032000F0D3FA00BF8F
:10056C001037BD4680BD00BFF4000020980000206D
:10057C00A000002080B582B000AF78600A4B1B68E9
:10058C000133094A1360084B1B680A2B02D1064B36
:10059C0001221A60044B1B68184600F095FC00BF42
:1005AC000837BD4680BD00BFF400002080B582B086
:1005BC0000AF78607968002000F016FC79680120A3
:1005CC0000F012FC1921032000F09CFA00BF083740
:1005DC00BD4680BD80B500AF0D4B1A680D4B83FB3B
:1005EC0002135911D317CB1A642101FB03F3D31A4D
:1005FC00002B0AD1064B1B68064A82FB03125211D0
:10060C00DB17D31A184600F05FFC00BF80BD00BF9B
:10061C00400100201F85EB5180B485B000AF78609D
:10062C001E4B1A681E4B1B681344FB607B68172B10
:10063C001FD07B68172B2CDC7B68152B03D07B68B9
:10064C00162B0BD025E0FB68152B1DD0154B1A680B
:10065C00134B1B68D31A114A136015E0FB68152B5A
:10066C0014D00E4B1A680E4B1B6813440D4A1360C2
:10067C000CE0FB68152B0BD0084B1A68084B1B6859
:10068C001344084A136003E000BF02E000BF00E01F
:10069C0000BF00BF1437BD4680BC7047AC000020C3
:1006AC00A8000020A400002080B500AF744B1B688C
:1006BC000B3B0C2B00F2D68001A252F823F000BFAA
:1006CC0001070008710800082507000871080008D8
:1006DC00710800087108000871080008710800080A
:1006EC00710800087108000873070008C9070008A2
:1006FC001F080008FFF76EFF0020FFF721FD0346DF
:10070C00002B00F0B180012200210D20FFF706FF25
:10071C000E2000F0D9FBA7E00020FFF711FD0346E7
:10072C00002B06D0574B1B680C2219461520FFF7DF
:10073C00F5FE0120FFF704FD0346002B05D0002039
:10074C00FFF786FE0120FFF783FE0220FFF7F8FC7F
:10075C000346002B00F08A800020FFF7ABFE01203F
:10076C00FFF7A8FE82E00020FFF7EAFC0346002B0F
:10077C0006D0454B1B680C2219461620FFF7CEFEFF
:10078C000120FFF7DDFC0346002B02D01520FFF7FC
:10079C00F1FE0220FFF7D4FC0346002B06D03B4BA6
:1007AC001B68384A13601520FFF736FF384BDB689F
:1007BC00002B5DD01520FFF7F9FE59E00020FFF764
:1007CC00BFFC0346002B06D0324B1B680C2219468B
:1007DC001720FFF7A3FE0120FFF7B2FC0346002B06
:1007EC0002D01620FFF7C6FE0220FFF7A9FC034635
:1007FC00002B06D0254B1B68234A13601620FFF7ED
:10080C000BFF234BDB68002B34D01620FFF7CEFEFA
:10081C0030E00020FFF794FC0346002B04D00122AB
:10082C0000210B20FFF77AFE0120FFF789FC03461D
:10083C00002B02D01720FFF79DFE0220FFF780FC53
:10084C000346002B06D0114B1B68124A136017206D
:10085C00FFF7E2FE0E4BDB68002B0DD01720FFF7E5
:10086C00A5FE09E000BF08E000BF06E000BF04E001
:10087C0000BF02E000BF00E000BF00BF80BD00BFB2
:10088C00A0000020A4000020A8000020F4000020FC
:10089C0058010020AC00002080B500AF0020FFF70D
:1008AC0079FC0120FFF776FC0220FFF773FC032094
:1008BC00FFF770FC00BF80BD80B500AF00F00EFDEF
:1008CC0000F020F800F0AAF800F05CF80C4801F0F9
:1008DC0067FC6421012000F015F9C821022000F00A
:1008EC0011F94FF49671032000F00CF9FFF7DCFEC0
:1008FC000020FFF7E7FC0120FFF7E4FCF6E700BF60
:10090C00F800002080B590B000AF07F11803282242
:10091C000021184601F0DCFF3B1D00221A605A60D2
:10092C009A60DA601A610223BB610123BB62102357
:10093C00FB6202237B630023BB630023FB6307F191
:10094C001803184600F0FEFF0346002B01D000F000
:10095C00D4F80F237B600223BB600023FB604FF4B1
:10096C0080633B6100237B613B1D0021184601F035
:10097C006BFA0346002B01D000F0BFF800BF4037E4
:10098C00BD4680BD80B586B000AF07F108030022DC
:10099C001A605A609A60DA603B4600221A605A600C
:1009AC001D4B4FF080421A601B4B41F63F725A6050
:1009BC00194B00229A60184B0922DA60164B002260
:1009CC001A61154B00229A61134801F099FB0346FA
:1009DC00002B01D000F091F84FF48053BB6007F16D
:1009EC00080319460C4801F02FFD0346002B01D0DB
:1009FC0000F083F800233B6000237B603B461946E4
:100A0C00054801F0FBFE0346002B01D000F075F801
:100A1C0000BF1837BD4680BDF800002080B586B0F9
:100A2C0000AF07F1080300221A605A609A60DA607E
:100A3C00284B9B69274A43F004039361254B9B6920
:100A4C0003F004037B607B68224B9B69214A43F0D3
:100A5C00080393611F4B9B6903F008033B603B68E1
:100A6C0000224FF4FC711C4800F03BFF00227F2158
:100A7C001A4800F036FF4FF4FC73BB600123FB6097
:100A8C0000233B6102237B6107F1080319461248DE
:100A9C0000F094FD7F23BB600123FB6000233B61CE
:100AAC0002237B6107F1080319460C4800F086FD10
:100ABC004FF4F053BB600023FB6001233B6107F153
:100ACC0008031946044800F079FD00BF1837BD46ED
:100ADC0080BD00BF0010024000080140000C014026
:100AEC0080B582B000AF7860012000F023F8FFF7EA
:100AFC00D3FE00BF0837BD4680BD80B400AF72B6D0
:100B0C0000BFFEE780B483B000AF7860396007495E
:100B1C007B683A6841F82320054A7B68002142F83B
:100B2C00231000BF0C37BD4680BC7047400100202D
:100B3C005801002080B483B000AF78600F4A7B6806
:100B4C0052F82330002B13DD0C4A7B6852F823300B
:100B5C005A1E0A497B6841F82320084A7B6852F8E0
:100B6C002330002B04DC064A7B68012142F8231059
:100B7C0000BF0C37BD4680BC704700BF4001002051
:100B8C005801002080B485B000AF154B9B69144A06
:100B9C0043F001039361124B9B6903F00103BB60AB
:100BAC00BB680F4BDB690E4A43F08053D3610C4B8F
:100BBC00DB6903F080537B607B680A4B5B68FB60EE
:100BCC00FB6823F0E063FB60FB6843F08063FB6031
:100BDC00044AFB68536000BF1437BD4680BC7047A5
:100BEC00001002400000014080B584B000AF786076
:100BFC007B681B68B3F1804F13D10C4BDB690B4A3C
:100C0C0043F00103D361094BDB6903F00103FB6083
:100C1C00FB68002200211C2000F099FC1C2000F035
:100C2C00B2FC00BF1037BD4680BD00BF00100240B3
:100C3C0080B400AFFEE780B400AFFEE780B400AF35
:100C4C00FEE780B400AFFEE780B400AFFEE780B4EF
:100C5C0000AF00BFBD4680BC704780B400AF00BF82
:100C6C00BD4680BC704780B400AF00BFBD4680BCA1
:100C7C00704780B500AF00F077FB00BF80BD00006F
:100C8C0080B500AF024801F0D7FA00BF80BD00BFAD
:100C9C00F800002080B400AF00BFBD4680BC704798
:100CAC0080B582B000AF786039603B680C3B0B2B91
:100CBC0000F28C8001A252F823F000BFA10D0008B5
:100CCC00D90D0008D90D0008D90D0008D90D000860
:100CDC00D90D0008D90D0008D90D0008D90D000850
:100CEC00F90C0008310D0008690D00083A4A7B68C0
:100CFC0032F8133000221946384800F0F2FD384A19
:100D0C007B6832F8133001221946344800F0E9FDB3
:100D1C00344A7B6832F81330012219462F4800F010
:100D2C00E0FD54E02C4A7B6832F81330012219465E
:100D3C002A4800F0D6FD2A4A7B6832F8133001228B
:100D4C001946264800F0CDFD264A7B6832F8133050
:100D5C0000221946214800F0C4FD38E01E4A7B6889
:100D6C0032F81330012219461C4800F0BAFD1C4A17
:100D7C007B6832F8133000221946184800F0B1FD98
:100D8C00184A7B6832F8133001221946134800F0D8
:100D9C00A8FD1CE0104A7B6832F81330012219467A
:100DAC000E4800F09EFD0E4A7B6832F8133001228B
:100DBC0019460A4800F095FD0A4A7B6832F8133050
:100DCC0001221946054800F08CFD00E000BF00BF71
:100DDC000837BD4680BD00BFB400002000080140AC
:100DEC00B8000020BC00002080B582B000AF786055
:100DFC0039603B68172B3FD03B68172B57DC3B689F
:100E0C00152B03D03B68162B1BD050E02A4A7B686D
:100E1C0032F813301946294800F07BFD284A7B68CC
:100E2C0032F8133001221946244800F05AFD254AA5
:100E3C007B6832F8133001221946204800F051FD2E
:100E4C0036E01D4A7B6832F81330012219461B48E4
:100E5C0000F047FD1A4A7B6832F81330012219461C
:100E6C00164800F03EFD174A7B6832F813301946DD
:100E7C00124800F04EFD1BE00F4A7B6832F813302D
:100E8C00012219460D4800F02CFD0D4A7B6832F802
:100E9C0013301946094800F03CFD0A4A7B6832F8C9
:100EAC00133001221946054800F01BFD00E000BF7D
:100EBC0000BF0837BD4680BDB400002000080140CB
:100ECC00B8000020BC00002080B582B000AF786074
:100EDC007B680E2B00F2D48101A252F823F000BFE4
:100EEC00290F0008710F0008B90F00080110000845
:100EFC004910000891100008D910000821110008B1
:100F0C0069110008B11100088D1200088D1200083B
:100F1C00F91100088D120008451200080022012169
:100F2C00C44800F0DEFC00220221C24800F0D9FCCB
:100F3C0000220421BF4800F0D4FC00220821BD4847
:100F4C0000F0CFFC00221021BA4800F0CAFC0022AD
:100F5C002021B84800F0C5FC01224021B54800F022
:100F6C00C0FC8EE101220121B24800F0BAFC002243
:100F7C000221B04800F0B5FC00220421AD4800F07D
:100F8C00B0FC01220821AB4800F0ABFC012210217F
:100F9C00A84800F0A6FC01222021A64800F0A1FCE4
:100FAC0001224021A34800F09CFC6AE100220121AF
:100FBC00A04800F096FC002202219E4800F091FC13
:100FCC00012204219B4800F08CFC00220821994846
:100FDC0000F087FC00221021964800F082FC0122D0
:100FEC002021944800F07DFC00224021914800F023
:100FFC0078FC46E1002201218E4800F072FC0022B0
:10100C0002218C4800F06DFC00220421894800F07C
:10101C0068FC00220821874800F063FC01221021A3
:10102C00844800F05EFC01222021824800F059FC2B
:10103C00002240217F4800F054FC22E101220121D2
:10104C007C4800F04EFC002202217A4800F049FC5A
:10105C0000220421774800F044FC01220821754845
:10106C0000F03FFC01221021724800F03AFC0022F3
:10107C002021704800F035FC002240216D4800F022
:10108C0030FCFEE0002201216A4800F02AFC01221B
:10109C000221684800F025FC00220421654800F07C
:1010AC0020FC00220821634800F01BFC01221021C7
:1010BC00604800F016FC002220215E4800F011FC74
:1010CC00002240215B4800F00CFCDAE000220121F8
:1010DC00584800F006FC01220221564800F001FCA1
:1010EC0000220421534800F0FCFB00220821514847
:1010FC0000F0F7FB002210214E4800F0F2FB00221A
:10110C0020214C4800F0EDFB00224021494800F022
:10111C00E8FBB6E000220121464800F0E2FB002289
:10112C000221444800F0DDFB00220421414800F07C
:10113C00D8FB012208213F4800F0D3FB01221021EB
:10114C003C4800F0CEFB012220213A4800F0C9FBBC
:10115C0001224021374800F0C4FB92E0002201211B
:10116C00344800F0BEFB00220221324800F0B9FBEB
:10117C00002204212F4800F0B4FB002208212D4846
:10118C0000F0AFFB002210212A4800F0AAFB00223D
:10119C002021284800F0A5FB00224021254800F022
:1011AC00A0FB6EE000220121224800F09AFB0022F5
:1011BC000221204800F095FB002204211D4800F07C
:1011CC0090FB002208211B4800F08BFB0122102110
:1011DC00184800F086FB00222021164800F081FB05
:1011EC0000224021134800F07CFB4AE0012201213F
:1011FC00104800F076FB012202210E4800F071FB32
:10120C00012204210B4800F06CFB01220821094843
:10121C0000F067FB01221021064800F062FB01225E
:10122C002021044800F05DFB01224021014800F020
:10123C0058FB26E0000C014001220121134800F06C
:10124C0050FB00220221114800F04BFB002204212C
:10125C000E4800F046FB002208210C4800F041FB30
:10126C0000221021094800F03CFB002220210748F5
:10127C0000F037FB01224021044800F032FB00E073
:10128C0000BF00BF0837BD4680BD00BF000C014049
:10129C00FFF700FD0B480C490C4A002302E0D45820
:1012AC00C4500433C4188C42F9D3094A094C0023A6
:1012BC0001E013600432A242FBD301F011FBFFF7F3
:1012CC00FBFA704700000020C800002078290008B5
:1012DC00C800002074010020FEE7000080B500AFBC
:1012EC00084B1B68074A43F010031360032000F0FF
:1012FC0023F90F2000F008F8FFF744FC00231846F0
:10130C0080BD00BF0020024080B582B000AF786085
:10131C00124B1A68124B1B7819464FF47A73B3FBB5
:10132C00F1F3B2FBF3F3184600F03BF90346002B44
:10133C0001D001230EE07B680F2B0AD800227968BC
:10134C004FF0FF3000F003F9064A7B68136000236E
:10135C0000E0012318460837BD4680BDB0000020D0
:10136C00C4000020C000002080B400AF054B1B78E7
:10137C001A46054B1B681344034A136000BFBD4655
:10138C0080BC7047C40000207001002080B400AF06
:10139C00024B1B681846BD4680BC7047700100208C
:1013AC0080B485B000AF78607B6803F00703FB6006
:1013BC000C4BDB68BB60BA684FF6FF031340BB6095
:1013CC00FB681A02BB68134343F0BF6343F400335A
:1013DC00BB60044ABB68D36000BF1437BD4680BCF9
:1013EC00704700BF00ED00E080B400AF044BDB6839
:1013FC001B0A03F007031846BD4680BC704700BFAC
:10140C0000ED00E080B483B000AF0346FB7197F9A8
:10141C000730002B0BDBFB7903F01F02064997F911
:10142C0007305B09012000FA02F241F8232000BFCB
:10143C000C37BD4680BC704700E100E080B483B03F
:10144C0000AF03463960FB7197F90730002B0ADBBC
:10145C003B68DAB20C4997F907301201D2B20B444F
:10146C0083F800230AE03B68DAB20849FB7903F001
:10147C000F03043B1201D2B20B441A7600BF0C3797
:10148C00BD4680BC704700BF00E100E000ED00E00D
:10149C0080B489B000AFF860B9607A60FB6803F083
:1014AC000703FB61FB69C3F10703042B28BF04236B
:1014BC00BB61FB690433062B02D9FB69033B00E0DB
:1014CC0000237B614FF0FF32BB6902FA03F3DA436E
:1014DC00BB681A407B699A404FF0FF317B6901FA77
:1014EC0003F3D9437B680B40134318462437BD469E
:1014FC0080BC704780B582B000AF78607B68013BE0
:10150C00B3F1807F01D301230FE00A4A7B68013BD2
:10151C0053600F214FF0FF30FFF790FF054B002277
:10152C009A60044B07221A60002318460837BD4600
:10153C0080BD00BF10E000E080B582B000AF7860E5
:10154C007868FFF72DFF00BF0837BD4680BD80B51A
:10155C0086B000AF0346B9607A60FB7300237B61F1
:10156C00FFF742FF78617A68B9687869FFF790FFF6
:10157C00024697F90F3011461846FFF75FFF00BF80
:10158C001837BD4680BD80B582B000AF0346FB71F5
:10159C0097F907301846FFF735FF00BF0837BD46EF
:1015AC0080BD80B582B000AF78607868FFF7A2FF8D
:1015BC00034618460837BD4680BD000080B48BB08A
:1015CC0000AF7860396000237B6200233B6261E1ED
:1015DC0001227B6A02FA03F3FB613B681B68FA6920
:1015EC001340BB61BA69FB699A4240F050813B6879
:1015FC005B68974A93425ED0954A934275D8954A58
:10160C00934258D0934A93426FD8934A934252D004
:10161C00914A934269D8914A93424CD08F4A934253
:10162C0063D88F4A934246D08D4A93425DD8122B91
:10163C002AD8122B59D801A252F823F0C31600084D
:10164C009D160008AF160008F1160008F7160008E2
:10165C00F7160008F7160008F7160008F71600082A
:10166C00F7160008F7160008F7160008F71600081A
:10167C00F7160008F7160008F7160008F71600080A
:10168C00A5160008B9160008764A934213D02CE030
:10169C003B68DB683B6229E03B68DB6804333B62F8
:1016AC0024E03B68DB6808333B621FE03B68DB6887
:1016BC000C333B621AE03B689B68002B02D104237D
:1016CC003B6213E03B689B68012B05D108233B620E
:1016DC007B68FA691A6109E008233B627B68FA6946
:1016EC005A6103E000233B6200E000BFBB69FF2BA3
:1016FC0001D87B6801E07B6804337B61BB69FF2BFD
:10170C0002D87B6A9B0002E07B6A083B9B003B6132
:10171C007B691A680F213B6901FA03F3DB431A401A
:10172C00396A3B6901FA03F31A437B691A603B6817
:10173C005B6803F08053002B00F0A9804A4B9B6937
:10174C00494A43F001039361474B9B6903F0010342
:10175C00BB60BB68454A7B6A9B08023352F8233056
:10176C00FB607B6A03F003039B000F2202FA03F376
:10177C00DB43FA681340FB607B683D4A93420DD013
:10178C007B683C4A934207D07B683B4A934201D129
:10179C00022304E0032302E0012300E000237A6A21
:1017AC0002F0030292009340FA681343FB602F4946
:1017BC007B6A9B080233FA6841F823203B685B681C
:1017CC0003F48013002B06D02C4B9A682B49BB6971
:1017DC0013438B6006E0294B9A68BB69DB432749AE
:1017EC0013408B603B685B6803F40013002B06D03E
:1017FC00224BDA682149BB691343CB6006E01F4BCF
:10180C00DA68BB69DB431D491340CB603B685B68FE
:10181C0003F40033002B06D0184B5A681749BB69E8
:10182C0013434B6006E0154B5A68BB69DB43134905
:10183C0013404B603B685B6803F48033002B1FD074
:10184C000E4B1A680D49BB6913430B601FE000BFB8
:10185C000000321000003110000022100000211096
:10186C000000121000001110001002400000014096
:10187C0000080140000C0140001001400004014030
:10188C000B4B1A68BB69DB43094913400B607B6A3D
:10189C0001337B623B681A687B6A22FA03F3002BE4
:1018AC007FF496AE00BF00BF2C37BD4680BC70479E
:1018BC000004014080B485B000AF78600B467B809B
:1018CC007B689A687B881340002B02D00123FB7342
:1018DC0001E00023FB73FB7B18461437BD4680BC2C
:1018EC00704780B483B000AF78600B467B801346A2
:1018FC007B707B78002B03D07A887B681A6103E0BD
:10190C007B881A047B681A6100BF0C37BD4680BC0B
:10191C00704780B485B000AF78600B467B807B68E5
:10192C00DB68FB607A88FB6813401A04FB68D943B8
:10193C007B880B401A437B681A6100BF1437BD4685
:10194C0080BC704780B586B000AF78607B68002B98
:10195C0001D1012372E27B681B6803F00103002BA9
:10196C0000F08780924B5B6803F00C03042B0CD0C7
:10197C008F4B5B6803F00C03082B12D18C4B5B680C
:10198C0003F48033B3F5803F0BD1894B1B6803F410
:10199C000033002B6CD07B685B68002B68D1012373
:1019AC004CE27B685B68B3F5803F06D1804B1B68CB
:1019BC007F4A43F4803313602EE07B685B68002B16
:1019CC000CD17B4B1B687A4A23F480331360784B21
:1019DC001B68774A23F4802313601DE07B685B68E7
:1019EC00B3F5A02F0CD1724B1B68714A43F48023C2
:1019FC0013606F4B1B686E4A43F4803313600BE02B
:101A0C006B4B1B686A4A23F480331360684B1B686A
:101A1C00674A23F4802313607B685B68002B13D028
:101A2C00FFF7B4FC386108E0FFF7B0FC02463B69F5
:101A3C00D31A642B01D9032300E25D4B1B6803F41A
:101A4C000033002BF0D014E0FFF7A0FC386108E065
:101A5C00FFF79CFC02463B69D31A642B01D9032384
:101A6C00ECE1534B1B6803F40033002BF0D100E086
:101A7C0000BF7B681B6803F00203002B63D04C4B48
:101A8C005B6803F00C03002B0BD0494B5B6803F035
:101A9C000C03082B1CD1464B5B6803F48033002BE2
:101AAC0016D1434B1B6803F00203002B05D07B6857
:101ABC001B69012B01D00123C0E13D4B1B6823F0B6
:101ACC00F8027B685B69DB00394913430B603AE031
:101ADC007B681B69002B20D0364B01221A60FFF764
:101AEC0055FC386108E0FFF751FC02463B69D31AFC
:101AFC00022B01D90323A1E12D4B1B6803F0020338
:101B0C00002BF0D02A4B1B6823F0F8027B685B6932
:101B1C00DB00274913430B6015E0264B00221A60AB
:101B2C00FFF734FC386108E0FFF730FC02463B69F4
:101B3C00D31A022B01D9032380E11D4B1B6803F040
:101B4C000203002BF0D17B681B6803F00803002B09
:101B5C003AD07B689B69002B19D0174B01221A6075
:101B6C00FFF714FC386108E0FFF710FC02463B69F4
:101B7C00D31A022B01D9032360E10D4B5B6A03F0EE
:101B8C000203002BF0D0012000F09CFA1CE00A4B61
:101B9C0000221A60FFF7FAFB38610FE0FFF7F6FB43
:101BAC0002463B69D31A022B08D9032346E100BF36
:101BBC00001002400000424280044242924B5B6A99
:101BCC0003F00203002BE9D17B681B6803F00403CC
:101BDC00002B00F0A6800023FB758B4BDB6903F018
:101BEC008053002B0DD1884BDB69874A43F080531F
:101BFC00D361854BDB6903F08053BB60BB68012369
:101C0C00FB75824B1B6803F48073002B18D17F4B40
:101C1C001B687E4A43F480731360FFF7B7FB38618F
:101C2C0008E0FFF7B3FB02463B69D31A642B01D9DA
:101C3C00032303E1754B1B6803F48073002BF0D076
:101C4C007B68DB68012B06D16F4B1B6A6E4A43F035
:101C5C00010313622DE07B68DB68002B0CD16A4B0F
:101C6C001B6A694A23F001031362674B1B6A664ABD
:101C7C0023F0040313621CE07B68DB68052B0CD19A
:101C8C00614B1B6A604A43F0040313625E4B1B6A90
:101C9C005D4A43F0010313620BE05B4B1B6A5A4A2B
:101CAC0023F001031362584B1B6A574A23F00403B9
:101CBC0013627B68DB68002B15D0FFF767FB38617C
:101CCC000AE0FFF763FB02463B69D31A41F2883204
:101CDC00934201D90323B1E04B4B1B6A03F002037F
:101CEC00002BEED014E0FFF751FB38610AE0FFF750
:101CFC004DFB02463B69D31A41F28832934201D91B
:101D0C0003239BE0404B1B6A03F00203002BEED134
:101D1C00FB7D012B05D13C4BDB693B4A23F0805307
:101D2C00D3617B68DB69002B00F08780364B5B68E6
:101D3C0003F00C03082B61D07B68DB69022B46D1C6
:101D4C00334B00221A60FFF721FB386108E0FFF7E4
:101D5C001DFB02463B69D31A022B01D903236DE00C
:101D6C00294B1B6803F00073002BF0D17B681B6AB6
:101D7C00B3F5803F08D1244B5B6823F400327B68B9
:101D8C009B68214913434B601F4B5B6823F474120F
:101D9C007B68196A7B685B6A0B431B4913434B6076
:101DAC001B4B01221A60FFF7F1FA386108E0FFF7CC
:101DBC00EDFA02463B69D31A022B01D903233DE00D
:101DCC00114B1B6803F00073002BF0D035E0104B67
:101DDC0000221A60FFF7DAFA386108E0FFF7D6FA4A
:101DEC0002463B69D31A022B01D9032326E0064B8A
:101DFC001B6803F00073002BF0D11EE07B68DB69DD
:101E0C00012B07D1012319E00010024000700040A3
:101E1C00600042420B4B5B68FB60FB6803F4803252
:101E2C007B681B6A9A4206D1FB6803F470127B68CC
:101E3C005B6A9A4201D0012300E000231846183750
:101E4C00BD4680BD0010024080B584B000AF786004
:101E5C0039607B68002B01D10123D0E06A4B1B68F1
:101E6C0003F007033A689A4210D9674B1B6823F0BA
:101E7C00070265493B6813430B60634B1B6803F017
:101E8C0007033A689A4201D00123B8E07B681B68CB
:101E9C0003F00203002B20D07B681B6803F00403C3
:101EAC00002B05D0594B5B68584A43F4E0635360F0
:101EBC007B681B6803F00803002B05D0534B5B6851
:101ECC00524A43F460535360504B5B6823F0F0026A
:101EDC007B689B684D4913434B607B681B6803F020
:101EEC000103002B40D07B685B68012B07D1474B6B
:101EFC001B6803F40033002B15D101237FE07B68B2
:101F0C005B68022B07D1414B1B6803F00073002B5D
:101F1C0009D1012373E03D4B1B6803F00203002B36
:101F2C0001D101236BE0394B5B6823F003027B6822
:101F3C005B68364913434B60FFF728FAF8600AE0F8
:101F4C00FFF724FA0246FB68D31A41F28832934217
:101F5C0001D9032353E02D4B5B6803F00C027B6823
:101F6C005B689B009A42EBD1274B1B6803F007037D
:101F7C003A689A4210D2244B1B6823F0070222497C
:101F8C003B6813430B60204B1B6803F007033A6854
:101F9C009A4201D0012332E07B681B6803F00403F2
:101FAC00002B08D0194B5B6823F4E0627B68DB687C
:101FBC00164913434B607B681B6803F00803002B26
:101FCC0009D0124B5B6823F460527B681B69DB0001
:101FDC000E4913434B6000F021F802460B4B5B6833
:101FEC001B0903F00F030A49CB5C22FA03F3094ADD
:101FFC001360094B1B681846FFF786F90023184637
:10200C001037BD4680BD00BF0020024000100240CA
:10201C004C290008B0000020C000002080B487B01C
:10202C0000AF0023FB600023BB6000237B61002317
:10203C007B6000233B611E4B5B68FB60FB6803F01D
:10204C000C03042B02D0082B03D027E0194B3B6167
:10205C0027E0FB689B0C03F00F03174AD35C7B60F3
:10206C00FB6803F48033002B10D0114B5B685B0CC6
:10207C0003F00103114AD35CBB607B680D4A03FB80
:10208C0002F2BB68B2FBF3F37B6104E07B680C4AA1
:10209C0002FB03F37B617B693B6102E0054B3B6117
:1020AC0000BF3B6918461C37BD4680BC704700BF5B
:1020BC000010024000127A005C2900086C2900080C
:1020CC0000093D0080B485B000AF78600A4B1B68F6
:1020DC000A4AA2FB03235B0A7A6802FB03F3FB6048
:1020EC0000BFFB685A1EFA60002BF9D100BF00BF7D
:1020FC001437BD4680BC7047B0000020D34D621031
:10210C0080B582B000AF78607B68002B01D10123D1
:10211C0041E07B6893F83D30DBB2002B06D17B6845
:10212C00002283F83C207868FEF75EFD7B68022273
:10213C0083F83D207B681A687B6804331946104687
:10214C0000F06EFA7B68012283F846207B6801223E
:10215C0083F83E207B68012283F83F207B680122B4
:10216C0083F840207B68012283F841207B680122A0
:10217C0083F842207B68012283F843207B6801228C
:10218C0083F844207B68012283F845207B68012278
:10219C0083F83D20002318460837BD4680BD00005B
:1021AC0080B485B000AF78607B6893F83D30DBB2CB
:1021BC00012B01D0012335E07B68022283F83D20FE
:1021CC007B681B68DA687B681B6842F00102DA6086
:1021DC007B681B68164A934209D07B681B68B3F175
:1021EC00804F04D07B681B68124A934211D17B68E4
:1021FC001B689B6803F00703FB60FB68062B10D081
:10220C007B681B681A687B681B6842F001021A60C5
:10221C0007E07B681B681A687B681B6842F0010248
:10222C001A60002318461437BD4680BC704700BFA7
:10223C00002C01400004004080B582B000AF7860F3
:10224C007B681B681B6903F00203022B22D17B689D
:10225C001B68DB6803F00203022B1BD17B681B6835
:10226C006FF002021A617B6801221A777B681B6887
:10227C009B6903F00303002B03D0786800F0B4F9DA
:10228C0005E0786800F0A7F9786800F0B6F97B688B
:10229C0000221A777B681B681B6903F00403042B6C
:1022AC0022D17B681B68DB6803F00403042B1BD171
:1022BC007B681B686FF004021A617B6802221A7734
:1022CC007B681B689B6903F44073002B03D0786810
:1022DC0000F08AF905E0786800F07DF9786800F084
:1022EC008CF97B6800221A777B681B681B6903F0EA
:1022FC000803082B22D17B681B68DB6803F00803FA
:10230C00082B1BD17B681B686FF008021A617B6875
:10231C0004221A777B681B68DB6903F00303002B2C
:10232C0003D0786800F060F905E0786800F053F9A4
:10233C00786800F062F97B6800221A777B681B686A
:10234C001B6903F01003102B22D17B681B68DB6820
:10235C0003F01003102B1BD17B681B686FF010026D
:10236C001A617B6808221A777B681B68DB6903F4A7
:10237C004073002B03D0786800F036F905E07868DC
:10238C0000F029F9786800F038F97B6800221A7798
:10239C007B681B681B6903F00103012B0ED17B6862
:1023AC001B68DB6803F00103012B07D17B681B68FA
:1023BC006FF001021A617868FEF792FB7B681B686C
:1023CC001B6903F08003802B0ED17B681B68DB68D4
:1023DC0003F08003802B07D17B681B686FF08002B1
:1023EC001A61786800F06BFA7B681B681B6903F054
:1023FC004003402B0ED17B681B68DB6803F0400365
:10240C00402B07D17B681B686FF040021A6178681B
:10241C0000F0FCF87B681B681B6903F02003202B81
:10242C000ED17B681B68DB6803F02003202B07D1DF
:10243C007B681B686FF020021A61786800F036FA2E
:10244C0000BF0837BD4680BD80B584B000AF786052
:10245C0039600023FB737B6893F83C30012B01D16E
:10246C000223B4E07B68012283F83C207B680222C3
:10247C0083F83D207B681B689B68BB60BB6823F0BE
:10248C007703BB60BB6823F47F43BB607B681B682E
:10249C00BA689A603B681B68B3F5005F3ED0B3F531
:1024AC00005F00F28780B3F5805F00F08680B3F5A3
:1024BC00805F7FD8702B1AD0702B7BD8602B50D0BC
:1024CC00602B77D8502B3CD0502B73D8402B58D046
:1024DC00402B6FD8302B64D0302B6BD8202B60D096
:1024EC00202B67D8002B5CD0102B5AD062E07B6875
:1024FC0018683B6899683B685A683B68DB6800F071
:10250C005EF97B681B689B68BB60BB6843F0770314
:10251C00BB607B681B68BA689A604FE07B68186880
:10252C003B6899683B685A683B68DB6800F047F980
:10253C007B681B689A687B681B6842F480429A60CF
:10254C003CE07B6818683B6859683B68DB681A4656
:10255C0000F0BEF87B681B685021184600F015F996
:10256C002CE07B6818683B6859683B68DB681A4646
:10257C0000F0DCF87B681B686021184600F005F958
:10258C001CE07B6818683B6859683B68DB681A4636
:10259C0000F09EF87B681B684021184600F0F5F8A7
:1025AC000CE07B681A683B681B681946104600F003
:1025BC00ECF803E00123FB7300E000BF7B68012211
:1025CC0083F83D207B68002283F83C20FB7B184677
:1025DC001037BD4680BD80B483B000AF786000BFBB
:1025EC000C37BD4680BC704780B483B000AF7860B8
:1025FC0000BF0C37BD4680BC704780B483B000AFC1
:10260C00786000BF0C37BD4680BC704780B483B087
:10261C0000AF786000BF0C37BD4680BC704700002F
:10262C0080B485B000AF786039607B681B68FB6054
:10263C007B68254A934207D07B68B3F1804F03D067
:10264C007B68224A934208D1FB6823F07003FB603D
:10265C003B685B68FA681343FB607B681A4A9342D9
:10266C0007D07B68B3F1804F03D07B68174A934245
:10267C0008D1FB6823F44073FB603B68DB68FA68A5
:10268C001343FB60FB6823F080023B685B691343D8
:10269C00FB607B68FA681A603B689A687B68DA6250
:1026AC003B681A687B689A627B68074A934203D13D
:1026BC003B681A697B681A637B6801225A6100BF08
:1026CC001437BD4680BC7047002C0140000400400C
:1026DC0080B487B000AFF860B9607A60FB681B6AA1
:1026EC007B61FB681B6A23F00102FB681A62FB68C2
:1026FC009B693B613B6923F0F0033B617B681B01E9
:10270C003A6913433B617B6923F00A037B617A6965
:10271C00BB6813437B61FB683A699A61FB687A6911
:10272C001A6200BF1C37BD4680BC704780B487B0AE
:10273C0000AFF860B9607A60FB681B6A7B61FB686C
:10274C001B6A23F01002FB681A62FB689B693B61F1
:10275C003B6923F470433B617B681B033A69134369
:10276C003B617B6923F0A0037B61BB681B017A6929
:10277C0013437B61FB683A699A61FB687A691A6258
:10278C0000BF1C37BD4680BC704780B485B000AF1D
:10279C00786039607B689B68FB60FB6823F0700392
:1027AC00FB603A68FB68134343F00703FB607B68EC
:1027BC00FA689A6000BF1437BD4680BC704780B47D
:1027CC0087B000AFF860B9607A603B60FB689B68CB
:1027DC007B617B6923F47F437B613B681A027B68D6
:1027EC001A43BB6813437A6913437B61FB687A69AC
:1027FC009A6000BF1C37BD4680BC704780B485B062
:10280C0000AF786039607B6893F83C30012B01D1C4
:10281C00022341E07B68012283F83C207B68022282
:10282C0083F83D207B681B685B68FB607B681B68DA
:10283C009B68BB60FB6823F07003FB603B681B6804
:10284C00FA681343FB607B681B68FA685A607B6804
:10285C001B68144A934209D07B681B68B3F1804F04
:10286C0004D07B681B68104A93420CD1BB6823F0E0
:10287C008003BB603B685B68BA681343BB607B68D2
:10288C001B68BA689A607B68012283F83D207B68DC
:10289C00002283F83C20002318461437BD4680BC28
:1028AC00704700BF002C01400004004080B483B08E
:1028BC0000AF786000BF0C37BD4680BC704780B459
:1028CC0083B000AF786000BF0C37BD4680BC70474A
:1028DC0003460244934200D1704703F8011BF9E709
:1028EC0070B500260C4D0D4C641BA410A64209D1EA
:1028FC0000F01AF800260A4D0A4C641BA410A642DC
:10290C0005D170BD55F8043B98470136EEE755F8F4
:10291C00043B98470136F2E770290008702900083B
:10292C007029000874290008F8B500BFF8BC08BC71
:10293C009E467047F8B500BFF8BC08BC9E46704771
:10294C000000000000000000010203040607080953
:10295C0002030405060708090A0B0C0D0E0F1010D4
:04296C000102000064
:042970003101000829
:042974000D01000849
:10297800000801400008014000080140000801402B
:10298800000200040008001001000000010000001F
:10299800010000000100000001000000010000002B
:1029A800010000000100000001000000010000001B
:1029B800010000000100000001000000010000000B
:1029C8000100000001000000F4010000F401000013
:1029D800F4010000F40100001500000017000000D9
:1029E8001500000015000000170000001600000088
:1029F8001700000016000000150000001500000078
:102A080000000000040000000100000001000000B8
:102A18000B00000005000000020000000300000099
:102A28000024F4000800400020000001100080008D
:082A3800100000000100000085
:040000050800129D40
:00000001FF
