:020000040800F2
:1000000000500020810E0008C1060008C706000845
:10001000CD060008D3060008D9060008000000003D
:10002000000000000000000000000000DF060008E3
:10003000EB06000800000000F706000803070008B0
:10004000C90E0008C90E0008C90E0008C90E000834
:10005000C90E0008C90E0008C90E0008C90E000824
:10006000C90E0008C90E0008C90E0008C90E000814
:10007000C90E0008C90E0008C90E0008C90E000804
:10008000C90E0008C90E0008C90E0008C90E0008F4
:10009000C90E0008C90E0008C90E0008C90E0008E4
:1000A000C90E0008C90E0008C90E0008C90E0008D4
:1000B00011070008C90E0008C90E0008C90E000883
:1000C000C90E0008C90E0008C90E0008C90E0008B4
:1000D000C90E0008C90E0008C90E0008C90E0008A4
:1000E000C90E0008C90E0008C90E00080000000073
:1000F0000000000000000000000000000000000000
:0C01000000000000000000005FF808F1A3
:10010C0010B5054C237833B9044B13B10448AFF345
:10011C0000800123237010BD980000200000000017
:10012C005425000808B5034B1BB103490348AFF332
:10013C00008008BD000000009C0000205425000831
:10014C0080B483B000AF7860094A7B6852F82330E2
:10015C00012B06D1064A7B68002142F823100123AB
:10016C0000E0002318460C37BD4680BC704700BF2A
:10017C00B400002080B483B000AF7860044A7B6880
:10018C00012142F8231000BF0C37BD4680BC7047DC
:10019C00B400002080B582B000AF7860374A7B682D
:1001AC0052F8232036497B6841F82320354A7B6876
:1001BC0052F8232031497B6841F82320324A7B686E
:1001CC0052F8232031497B6831F813301946104618
:1001DC0001F06AF9034619462A4A7B6842F8231053
:1001EC00274A7B6852F8232024497B6851F8233036
:1001FC009A423FD1214A7B6852F8232021497B68DF
:10020C0051F823309A4235D1214A7B6852F8232089
:10021C001C497B6851F823309A4217D0194A7B68E5
:10022C0052F823201A497B6841F82320154A7B6831
:10023C0052F82330002B1DD17868FFF79BFF154A2D
:10024C007B684FF4FA7142F8231013E0114A7B6873
:10025C0052F823305A1E0F497B6841F823200D4A6F
:10026C007B6852F82330002B04DC094A7B6801219F
:10027C0042F8231000BF0837BD4680BD280000207F
:10028C001800002038000020000000201000002082
:10029C00480000205800002080B500AF002000F07E
:1002AC008BF9012000F088F9022000F085F9032079
:1002BC0000F082F9042000F07FF900BF80BD80B50A
:1002CC0000AF0020FFF766FF0120FFF763FF02205D
:1002DC00FFF760FF0320FFF75DFF00BF80BD00004C
:1002EC0080B500AF00F0ECFD00F034F800F0C2F87F
:1002FC0000F072F8164801F04DFD0C21002000F0C2
:10030C0011FA0C21012000F00DFA0C2000F0AEFBCC
:10031C000020FFF715FF0346002B03D0152100200A
:10032C0000F0F4FA0120FFF70BFF0346002B03D07B
:10033C001721002000F0EAFA0220FFF701FF034624
:10034C00002BE5D01621002000F0E0FAE0E700BF1A
:10035C00C400002080B590B000AF07F1180328222C
:10036C000021184602F0C4F83B1D00221A605A60A6
:10037C009A60DA601A610223BB610123BB6210230D
:10038C00FB6202237B630023BB634FF46013FB63AC
:10039C0007F11803184601F0CFF80346002B01D0E3
:1003AC0000F004F90F237B600223BB600023FB6089
:1003BC004FF480633B6100237B613B1D0221184697
:1003CC0001F03CFB0346002B01D000F0EFF800BF1E
:1003DC004037BD4680BD000080B586B000AF07F148
:1003EC00080300221A605A609A60DA603B460022C9
:1003FC001A605A601E4B4FF080421A601C4B40F240
:10040C00FF325A601A4B00229A60194B4FF41C723F
:10041C00DA60174B00221A61154B00229A611448BE
:10042C0001F068FC0346002B01D000F0BFF84FF43C
:10043C008053BB6007F1080319460D4801F004FE18
:10044C000346002B01D000F0B1F800233B600023E1
:10045C007B603B461946064801F0DAFF0346002B49
:10046C0001D000F0A3F800BF1837BD4680BD00BF17
:10047C00C400002080B588B000AF07F11003002243
:10048C001A605A609A60DA603E4B9B693D4A43F0B1
:10049C00100393613B4B9B6903F01003FB60FB68FB
:1004AC00384B9B69374A43F004039361354B9B6986
:1004BC0003F00403BB60BB68324B9B69314A43F0C9
:1004CC00080393612F4B9B6903F008037B607B68E7
:1004DC00002283212C4800F0FEFF002240F2F32181
:1004EC002A4800F0F8FF002240F24121284800F091
:1004FC00F2FF83233B6101237B610023BB61022359
:10050C00FB6107F1100319461F4800F049FE40F249
:10051C00F3233B6101237B610023BB610223FB615D
:10052C0007F110031946194800F03AFE40F20C434B
:10053C003B6100237B610123BB6107F1100319466A
:10054C00124800F02DFE40F241233B6101237B61F8
:10055C000023BB610223FB6107F1100319460C4811
:10056C0000F01EFE08233B6100237B610123BB616D
:10057C0007F110031946064800F012FE00BF2037A1
:10058C00BD4680BD00100240001001400008014033
:10059C00000C014080B582B000AF7860FFF77CFEA4
:1005AC00FFF78DFE00BF0837BD4680BD80B400AF9D
:1005BC0072B600BFFEE7000080B483B000AF786075
:1005CC000F4A7B6852F82330002B13DD0C4A7B68F2
:1005DC0052F823305A1E0A497B6841F82320084AF6
:1005EC007B6852F82330002B04DC064A7B6801211F
:1005FC0042F8231000BF0C37BD4680BC704700BFCB
:10060C000C0100202401002080B485B000AF154BF4
:10061C009B69144A43F001039361124B9B6903F0ED
:10062C000103BB60BB680F4BDB690E4A43F0805380
:10063C00D3610C4BDB6903F080537B607B680A4B06
:10064C005B68FB60FB6823F0E063FB60FB6843F0D6
:10065C000073FB60044AFB68536000BF1437BD464F
:10066C0080BC7047001002400000014080B584B08F
:10067C0000AF78607B681B68B3F1804F13D10C4BD3
:10068C00DB690B4A43F00103D361094BDB6903F0CF
:10069C000103FB60FB68002200211C2000F049FDD7
:1006AC001C2000F062FD00BF1037BD4680BD00BFAE
:1006BC000010024080B400AFFEE780B400AFFEE74C
:1006CC0080B400AFFEE780B400AFFEE780B400AFAB
:1006DC00FEE780B400AF00BFBD4680BC704780B45D
:1006EC0000AF00BFBD4680BC704780B400AF00BFF8
:1006FC00BD4680BC704780B500AF00F027FC00BF42
:10070C0080BD000080B500AF024801F095FB00BF32
:10071C0080BD00BFC400002080B400AF00BFBD4648
:10072C0080BC704780B582B000AF786039603B68A0
:10073C000C3B0B2B00F2DC8001A252F823F000BF23
:10074C009D080008FD080008FD080008FD080008C9
:10075C00FD080008FD080008FD080008FD08000859
:10076C00FD0800087D070008DD0700083D080008AB
:10077C007A6813465B001344604A52F82300604ABF
:10078C007B6832F813300022194600F0A4FE7A6818
:10079C0013465B0013440133584A52F82300594A5C
:1007AC007B6832F813300122194600F094FE7A6807
:1007BC0013465B0013440233504A52F82300524A4A
:1007CC007B6832F813300122194600F084FE90E069
:1007DC007A6813465B001344484A52F82300484A8F
:1007EC007B6832F813300122194600F074FE7A68E7
:1007FC0013465B0013440133404A52F82300414A2C
:10080C007B6832F813300122194600F064FE7A68D6
:10081C0013465B0013440233384A52F823003A4A19
:10082C007B6832F813300022194600F054FE60E069
:10083C007A6813465B001344304A52F82300304A5E
:10084C007B6832F813300122194600F044FE7A68B6
:10085C0013465B0013440133284A52F82300294AFB
:10086C007B6832F813300022194600F034FE7A68A7
:10087C0013465B0013440233204A52F82300224AE9
:10088C007B6832F813300122194600F024FE30E068
:10089C007A6813465B001344184A52F82300184A2E
:1008AC007B6832F813300122194600F014FE7A6886
:1008BC0013465B0013440133104A52F82300114ACB
:1008CC007B6832F813300122194600F004FE7A6876
:1008DC0013465B0013440233084A52F823000A4AB9
:1008EC007B6832F813300122194600F0F4FD00E069
:1008FC0000BF00BF0837BD4680BD00BF7800002098
:10090C006C000020700000207400002080B582B0C4
:10091C0000AF786039603B68172B6AD03B68172BA7
:10092C0000F397803B68152B03D03B68162B30D017
:10093C008FE07A6813465B001344484A52F8232030
:10094C0047497B6831F813301946104600F0DBFD3F
:10095C007A6813465B0013440133404A52F8230073
:10096C00404A7B6832F813300122194600F0B3FD7F
:10097C007A6813465B0013440233384A52F823005A
:10098C00394A7B6832F813300122194600F0A3FD76
:10099C0060E07A6813465B001344304A52F8230037
:1009AC002F4A7B6832F813300122194600F093FD70
:1009BC007A6813465B0013440133284A52F823002B
:1009CC00284A7B6832F813300122194600F083FD67
:1009DC007A6813465B0013440233204A52F82320F2
:1009EC0021497B6831F813301946104600F08BFD15
:1009FC0030E07A6813465B001344184A52F823001F
:100A0C00174A7B6832F813300122194600F063FD57
:100A1C007A6813465B0013440133104A52F82320C2
:100A2C0010497B6831F813301946104600F06BFD05
:100A3C007A6813465B0013440233084A52F82300C9
:100A4C00094A7B6832F813300122194600F043FD45
:100A5C0000E000BF00BF0837BD4680BD7800002015
:100A6C006C000020700000207400002080B582B063
:100A7C0000AF78607B680E2B00F2F08101A252F877
:100A8C0023F000BFCD0A0008190B0008650B000805
:100A9C00B10B0008FD0B0008490C0008950C000870
:100AAC00E10C00082D0D0008790D0008690E0008F6
:100ABC00690E0008C50D0008690E00081D0E00081F
:100ACC0000224FF40071CF4800F005FD0022802178
:100ADC00CD4800F000FD00224021CC4800F0FBFC8A
:100AEC0000228021C74800F0F6FC00224021C548B6
:100AFC0000F0F1FC00222021C24800F0ECFC0122A5
:100B0C004FF40071C14800F0E6FCA8E101224FF45B
:100B1C000071BC4800F0DFFC00228021BA4800F0D4
:100B2C00DAFC00224021B94800F0D5FC01228021DA
:100B3C00B44800F0D0FC01224021B24800F0CBFCBC
:100B4C0001222021AF4800F0C6FC01224FF40071B5
:100B5C00AE4800F0C0FC82E100224FF40071A948BD
:100B6C0000F0B9FC00228021A74800F0B4FC01225F
:100B7C004021A64800F0AFFC00228021A14800F0E3
:100B8C00AAFC002240219F4800F0A5FC0122202154
:100B9C009C4800F0A0FC00224FF400719B4800F030
:100BAC009AFC5CE100224FF40071964800F093FC33
:100BBC0000228021944800F08EFC002240219348B2
:100BCC0000F089FC002280218E4800F084FC012278
:100BDC0040218C4800F07FFC01222021894800F044
:100BEC007AFC00224FF40071884800F074FC36E166
:100BFC0001224FF40071834800F06DFC002280212B
:100C0C00814800F068FC00224021804800F063FC21
:100C1C00012280217B4800F05EFC012240217948B2
:100C2C0000F059FC00222021764800F054FC0022F0
:100C3C004FF40071754800F04EFC10E100224FF4A7
:100C4C000071704800F047FC012280216E4800F0D2
:100C5C0042FC002240216D4800F03DFC0022802126
:100C6C00684800F038FC01224021664800F033FC53
:100C7C0000222021634800F02EFC00224FF400716A
:100C8C00624800F028FCEAE000224FF400715D4855
:100C9C0000F021FC012280215B4800F01CFC0022AA
:100CAC0040215A4800F017FC00228021554800F0E2
:100CBC0012FC00224021534800F00DFC00222021A0
:100CCC00504800F008FC00224FF400714F4800F02F
:100CDC0002FCC4E000224FF400714A4800F0FBFB18
:100CEC0000228021484800F0F6FB002240214748B2
:100CFC0000F0F1FB01228021424800F0ECFB0122C4
:100D0C004021404800F0E7FB012220213D4800F043
:100D1C00E2FB01224FF400713C4800F0DCFB9EE04A
:100D2C0000224FF40071374800F0D5FB00228021DF
:100D3C00354800F0D0FB00224021344800F0CBFBBA
:100D4C00002280212F4800F0C6FB002240212D48B4
:100D5C0000F0C1FB002220212A4800F0BCFB00223D
:100D6C004FF40071294800F0B6FB78E000224FF4F4
:100D7C000071244800F0AFFB00228021224800F0D3
:100D8C00AAFB00224021214800F0A5FB0022802173
:100D9C001C4800F0A0FB012240211A4800F09BFBEC
:100DAC0000222021174800F096FB00224FF400711E
:100DBC00164800F090FB52E001224FF400711148EC
:100DCC0000F089FB012280210F4800F084FB0122F6
:100DDC0040210E4800F07FFB01228021094800F0E1
:100DEC007AFB01224021074800F075FB01222021EB
:100DFC00044800F070FB01224FF40071034800F02E
:100E0C006AFB2CE00008014000100140000C01407E
:100E1C0001224FF40071144800F05DFB0022802188
:100E2C00124800F058FB00224021114800F053FBFF
:100E3C00002280210C4800F04EFB002240210A4881
:100E4C0000F049FB00222021074800F044FB01225E
:100E5C004FF40071064800F03EFB00E000BF00BFFD
:100E6C000837BD4680BD00BF00080140001001409E
:100E7C00000C0140FFF750FC0B480C490C4A0023B6
:100E8C0002E0D458C4500433C4188C42F9D3094A34
:100E9C00094C002301E013600432A242FBD301F0A1
:100EAC002FFBFFF71DFA7047000000209800002070
:100EBC00982500089800002040010020FEE7000063
:100ECC0080B500AF084B1B68074A43F01003136052
:100EDC00032000F023F90F2000F008F8FFF794FB33
:100EEC000023184680BD00BF0020024080B582B0B0
:100EFC0000AF7860124B1A68124B1B7819464FF4EE
:100F0C007A73B3FBF1F3B2FBF3F3184600F03BF941
:100F1C000346002B01D001230EE07B680F2B0AD86F
:100F2C00002279684FF0FF3000F003F9064A7B6825
:100F3C001360002300E0012318460837BD4680BD2E
:100F4C0068000020940000209000002080B400AFC6
:100F5C00054B1B781A46054B1B681344034A136058
:100F6C0000BFBD4680BC7047940000203C010020AF
:100F7C0080B400AF024B1B681846BD4680BC70475E
:100F8C003C01002080B485B000AF78607B6803F032
:100F9C000703FB600C4BDB68BB60BA684FF6FF03C2
:100FAC001340BB60FB681A02BB68134343F0BF637A
:100FBC0043F40033BB60044ABB68D36000BF1437F2
:100FCC00BD4680BC704700BF00ED00E080B400AFB0
:100FDC00044BDB681B0A03F007031846BD4680BCB4
:100FEC00704700BF00ED00E080B483B000AF034653
:100FFC00FB7197F90730002B0BDBFB7903F01F0219
:10100C00064997F907305B09012000FA02F241F812
:10101C00232000BF0C37BD4680BC704700E100E0C8
:10102C0080B483B000AF03463960FB7197F9073089
:10103C00002B0ADB3B68DAB20C4997F90730120136
:10104C00D2B20B4483F800230AE03B68DAB20849B9
:10105C00FB7903F00F03043B1201D2B20B441A7656
:10106C0000BF0C37BD4680BC704700BF00E100E0FC
:10107C0000ED00E080B489B000AFF860B9607A6030
:10108C00FB6803F00703FB61FB69C3F10703042B47
:10109C0028BF0423BB61FB690433062B02D9FB690F
:1010AC00033B00E000237B614FF0FF32BB6902FA87
:1010BC0003F3DA43BB681A407B699A404FF0FF3167
:1010CC007B6901FA03F3D9437B680B401343184641
:1010DC002437BD4680BC704780B582B000AF7860C5
:1010EC007B68013BB3F1807F01D301230FE00A4AF7
:1010FC007B68013B53600F214FF0FF30FFF790FFEF
:10110C00054B00229A60044B07221A6000231846F4
:10111C000837BD4680BD00BF10E000E080B582B04E
:10112C0000AF78607868FFF72DFF00BF0837BD4629
:10113C0080BD80B586B000AF0346B9607A60FB73A2
:10114C0000237B61FFF742FF78617A68B9687869A0
:10115C00FFF790FF024697F90F3011461846FFF73C
:10116C005FFF00BF1837BD4680BD80B582B000AFB1
:10117C000346FB7197F907301846FFF735FF00BFA0
:10118C000837BD4680BD80B582B000AF7860786806
:10119C00FFF7A2FF034618460837BD4680BD000086
:1011AC0080B48BB000AF7860396000237B62002381
:1011BC003B6269E101227B6A02FA03F3FB613B6843
:1011CC001B68FA691340BB61BA69FB699A4240F02B
:1011DC0058813B685B689A4A93425ED0984A934226
:1011EC0075D8984A934258D0964A93426FD8964AEB
:1011FC00934252D0944A934269D8944A93424CD029
:10120C00924A934263D8924A934246D0904A934270
:10121C005DD8122B2AD8122B59D801A252F823F0E0
:10122C00A71200088112000893120008D5120008BA
:10123C00DB120008DB120008DB120008DB120008CE
:10124C00DB120008DB120008DB120008DB120008BE
:10125C00DB120008DB120008DB120008DB120008AE
:10126C00DB120008891200089D120008794A93428B
:10127C0013D02CE03B68DB683B6229E03B68DB6801
:10128C0004333B6224E03B68DB6808333B621FE0BD
:10129C003B68DB680C333B621AE03B689B68002BB5
:1012AC0002D104233B6213E03B689B68012B05D100
:1012BC0008233B627B68FA691A6109E008233B62E8
:1012CC007B68FA695A6103E000233B6200E000BFCF
:1012DC00BB69FF2B01D87B6801E07B6804337B6121
:1012EC00BB69FF2B02D87B6A9B0002E07B6A083B40
:1012FC009B003B617B691A680F213B6901FA03F380
:10130C00DB431A40396A3B6901FA03F31A437B69E0
:10131C001A603B685B6803F08053002B00F0B180CF
:10132C004D4B9B694C4A43F0010393614A4B9B69BB
:10133C0003F00103BB60BB68484A7B6A9B0802331D
:10134C0052F82330FB607B6A03F003039B000F22EF
:10135C0002FA03F3DB43FA681340FB607B68404AF4
:10136C00934213D07B683F4A93420DD07B683E4A30
:10137C00934207D07B683D4A934201D1032306E098
:10138C00042304E0022302E0012300E000237A6A34
:10139C0002F0030292009340FA681343FB602F495A
:1013AC007B6A9B080233FA6841F823203B685B6830
:1013BC0003F48013002B06D02D4B9A682C49BB6983
:1013CC0013438B6006E02A4B9A68BB69DB432849C0
:1013DC0013408B603B685B6803F40013002B06D052
:1013EC00234BDA682249BB691343CB6006E0204BE0
:1013FC00DA68BB69DB431E491340CB603B685B6812
:10140C0003F40033002B06D0194B5A681849BB69FA
:10141C0013434B6006E0164B5A68BB69DB43144917
:10142C0013404B603B685B6803F48033002B21D086
:10143C000F4B1A680E49BB6913430B6021E000BFC8
:10144C0000003210000031100000221000002110AA
:10145C0000001210000011100010024000000140AA
:10146C0000080140000C0140001001400014014034
:10147C00000401400B4B1A68BB69DB43094913405C
:10148C000B607B6A01337B623B681A687B6A22FAC9
:10149C0003F3002B7FF48EAE00BF00BF2C37BD468C
:1014AC0080BC70470004014080B485B000AF786008
:1014BC000B467B807B689A687B881340002B02D09C
:1014CC000123FB7301E00023FB73FB7B18461437ED
:1014DC00BD4680BC704780B483B000AF78600B46CB
:1014EC007B8013467B707B78002B03D07A887B68DB
:1014FC001A6103E07B881A047B681A6100BF0C3701
:10150C00BD4680BC704780B485B000AF78600B4698
:10151C007B807B68DB68FB607A88FB6813401A046D
:10152C00FB68D9437B880B401A437B681A6100BF68
:10153C001437BD4680BC704780B586B000AF78606C
:10154C007B68002B01D1012372E27B681B6803F0DE
:10155C000103002B00F08780924B5B6803F00C03B7
:10156C00042B0CD08F4B5B6803F00C03082B12D1AF
:10157C008C4B5B6803F48033B3F5803F0BD1894B04
:10158C001B6803F40033002B6CD07B685B68002B6A
:10159C0068D101234CE27B685B68B3F5803F06D1D0
:1015AC00804B1B687F4A43F4803313602EE07B68CA
:1015BC005B68002B0CD17B4B1B687A4A23F480337D
:1015CC001360784B1B68774A23F4802313601DE06B
:1015DC007B685B68B3F5A02F0CD1724B1B68714A0A
:1015EC0043F4802313606F4B1B686E4A43F48033C3
:1015FC0013600BE06B4B1B686A4A23F48033136057
:10160C00684B1B68674A23F4802313607B685B6814
:10161C00002B13D0FFF7ACFC386108E0FFF7A8FCF7
:10162C0002463B69D31A642B01D9032300E25D4BBC
:10163C001B6803F40033002BF0D014E0FFF798FC88
:10164C00386108E0FFF794FC02463B69D31A642B1F
:10165C0001D90323ECE1534B1B6803F40033002B3B
:10166C00F0D100E000BF7B681B6803F00203002B85
:10167C0063D04C4B5B6803F00C03002B0BD0494B35
:10168C005B6803F00C03082B1CD1464B5B6803F41E
:10169C008033002B16D1434B1B6803F00203002B45
:1016AC0005D07B681B69012B01D00123C0E13D4BA8
:1016BC001B6823F0F8027B685B69DB003949134334
:1016CC000B603AE07B681B69002B20D0364B012263
:1016DC001A60FFF74DFC386108E0FFF749FC024641
:1016EC003B69D31A022B01D90323A1E12D4B1B68B3
:1016FC0003F00203002BF0D02A4B1B6823F0F802F6
:10170C007B685B69DB00274913430B6015E0264BB4
:10171C0000221A60FFF72CFC386108E0FFF728FC68
:10172C0002463B69D31A022B01D9032380E11D4BDE
:10173C001B6803F00203002BF0D17B681B6803F0DD
:10174C000803002B3AD07B689B69002B19D0174BF0
:10175C0001221A60FFF70CFC386108E0FFF708FC67
:10176C0002463B69D31A022B01D9032360E10D4BCE
:10177C005B6A03F00203002BF0D0012000F09CFA0E
:10178C001CE00A4B00221A60FFF7F2FB38610FE0F5
:10179C00FFF7EEFB02463B69D31A022B08D9032351
:1017AC0046E100BF00100240000042428004424269
:1017BC00924B5B6A03F00203002BE9D17B681B6838
:1017CC0003F00403002B00F0A6800023FB758B4B69
:1017DC00DB6903F08053002B0DD1884BDB69874A02
:1017EC0043F08053D361854BDB6903F08053BB60BE
:1017FC00BB680123FB75824B1B6803F48073002BC1
:10180C0018D17F4B1B687E4A43F480731360FFF73B
:10181C00AFFB386108E0FFF7ABFB02463B69D31A1C
:10182C00642B01D9032303E1754B1B6803F480730C
:10183C00002BF0D07B68DB68012B06D16F4B1B6A49
:10184C006E4A43F0010313622DE07B68DB68002BCA
:10185C000CD16A4B1B6A694A23F001031362674B74
:10186C001B6A664A23F0040313621CE07B68DB6886
:10187C00052B0CD1614B1B6A604A43F004031362C5
:10188C005E4B1B6A5D4A43F0010313620BE05B4B3A
:10189C001B6A5A4A23F001031362584B1B6A574ABE
:1018AC0023F0040313627B68DB68002B15D0FFF771
:1018BC005FFB38610AE0FFF75BFB02463B69D31A1A
:1018CC0041F28832934201D90323B1E04B4B1B6A9E
:1018DC0003F00203002BEED014E0FFF749FB386154
:1018EC000AE0FFF745FB02463B69D31A41F2883206
:1018FC00934201D903239BE0404B1B6A03F0020384
:10190C00002BEED1FB7D012B05D13C4BDB693B4A17
:10191C0023F08053D3617B68DB69002B00F0878058
:10192C00364B5B6803F00C03082B61D07B68DB69DA
:10193C00022B46D1334B00221A60FFF719FB38619A
:10194C0008E0FFF715FB02463B69D31A022B01D9BD
:10195C0003236DE0294B1B6803F00073002BF0D1BF
:10196C007B681B6AB3F5803F08D1244B5B6823F47A
:10197C0000327B689B68214913434B601F4B5B68AB
:10198C0023F474127B68196A7B685B6A0B431B49EE
:10199C0013434B601B4B01221A60FFF7E9FA3861C5
:1019AC0008E0FFF7E5FA02463B69D31A022B01D98E
:1019BC0003233DE0114B1B6803F00073002BF0D0A8
:1019CC0035E0104B00221A60FFF7D2FA386108E0BC
:1019DC00FFF7CEFA02463B69D31A022B01D9032337
:1019EC0026E0064B1B6803F00073002BF0D11EE0C1
:1019FC007B68DB69012B07D1012319E00010024041
:101A0C0000700040600042420B4B5B68FB60FB685F
:101A1C0003F480327B681B6A9A4206D1FB6803F49C
:101A2C0070127B685B6A9A4201D0012300E00023AC
:101A3C0018461837BD4680BD0010024080B584B0F2
:101A4C0000AF786039607B68002B01D10123D0E0B6
:101A5C006A4B1B6803F007033A689A4210D9674B2C
:101A6C001B6823F0070265493B6813430B60634B0B
:101A7C001B6803F007033A689A4201D00123B8E0CF
:101A8C007B681B6803F00203002B20D07B681B686B
:101A9C0003F00403002B05D0594B5B68584A43F400
:101AAC00E06353607B681B6803F00803002B05D0D0
:101ABC00534B5B68524A43F460535360504B5B6822
:101ACC0023F0F0027B689B684D4913434B607B68A5
:101ADC001B6803F00103002B40D07B685B68012B73
:101AEC0007D1474B1B6803F40033002B15D101239E
:101AFC007FE07B685B68022B07D1414B1B6803F0CE
:101B0C000073002B09D1012373E03D4B1B6803F0DC
:101B1C000203002B01D101236BE0394B5B6823F0EE
:101B2C0003027B685B68364913434B60FFF720FA6E
:101B3C00F8600AE0FFF71CFA0246FB68D31A41F280
:101B4C008832934201D9032353E02D4B5B6803F099
:101B5C000C027B685B689B009A42EBD1274B1B689D
:101B6C0003F007033A689A4210D2244B1B6823F007
:101B7C00070222493B6813430B60204B1B6803F0A0
:101B8C0007033A689A4201D0012332E07B681B6854
:101B9C0003F00403002B08D0194B5B6823F4E062BC
:101BAC007B68DB68164913434B607B681B6803F04A
:101BBC000803002B09D0124B5B6823F460527B683E
:101BCC001B69DB000E4913434B6000F021F8024601
:101BDC000B4B5B681B0903F00F030A49CB5C22FA21
:101BEC0003F3094A1360094B1B681846FFF77EF98B
:101BFC00002318461037BD4680BD00BF00200240B0
:101C0C00001002406C2500086800002090000020A5
:101C1C0080B487B000AF0023FB600023BB600023BF
:101C2C007B6100237B6000233B611E4B5B68FB6088
:101C3C00FB6803F00C03042B02D0082B03D027E025
:101C4C00194B3B6127E0FB689B0C03F00F03174A11
:101C5C00D35C7B60FB6803F48033002B10D0114BFA
:101C6C005B685B0C03F00103114AD35CBB607B68BF
:101C7C000D4A03FB02F2BB68B2FBF3F37B6104E099
:101C8C007B680C4A02FB03F37B617B693B6102E0DE
:101C9C00054B3B6100BF3B6918461C37BD4680BCF9
:101CAC00704700BF0010024000127A007C2500082B
:101CBC008C25000800093D0080B485B000AF786029
:101CCC000A4B1B680A4AA2FB03235B0A7A6802FBD5
:101CDC0003F3FB6000BFFB685A1EFA60002BF9D1BE
:101CEC0000BF00BF1437BD4680BC704768000020A1
:101CFC00D34D621080B582B000AF78607B68002B4A
:101D0C0001D1012341E07B6893F83D30DBB2002B1D
:101D1C0006D17B68002283F83C207868FEF7A6FC8D
:101D2C007B68022283F83D207B681A687B68043349
:101D3C001946104600F074FA7B68012283F846209D
:101D4C007B68012283F83E207B68012283F83F20C8
:101D5C007B68012283F840207B68012283F84120B4
:101D6C007B68012283F842207B68012283F84320A0
:101D7C007B68012283F844207B68012283F845208C
:101D8C007B68012283F83D20002318460837BD46A6
:101D9C0080BD000080B485B000AF78607B6893F89C
:101DAC003D30DBB2012B01D001233AE07B680222EB
:101DBC0083F83D207B681B68DA687B681B6842F0FF
:101DCC000102DA607B681B68184A93420ED07B686C
:101DDC001B68B3F1804F09D07B681B68144A93428F
:101DEC0004D07B681B68134A934211D17B681B6833
:101DFC009B6803F00703FB60FB68062B10D07B6825
:101E0C001B681A687B681B6842F001021A6007E0C5
:101E1C007B681B681A687B681B6842F001021A60B9
:101E2C00002318461437BD4680BC7047002C014077
:101E3C00000400400008004080B582B000AF78601C
:101E4C007B681B681B6903F00203022B22D17B68A1
:101E5C001B68DB6803F00203022B1BD17B681B6839
:101E6C006FF002021A617B6801221A777B681B688B
:101E7C009B6903F00303002B03D0786800F0B4F9DE
:101E8C0005E0786800F0A7F9786800F0B6F97B688F
:101E9C0000221A777B681B681B6903F00403042B70
:101EAC0022D17B681B68DB6803F00403042B1BD175
:101EBC007B681B686FF004021A617B6802221A7738
:101ECC007B681B689B6903F44073002B03D0786814
:101EDC0000F08AF905E0786800F07DF9786800F088
:101EEC008CF97B6800221A777B681B681B6903F0EE
:101EFC000803082B22D17B681B68DB6803F00803FE
:101F0C00082B1BD17B681B686FF008021A617B6879
:101F1C0004221A777B681B68DB6903F00303002B30
:101F2C0003D0786800F060F905E0786800F053F9A8
:101F3C00786800F062F97B6800221A777B681B686E
:101F4C001B6903F01003102B22D17B681B68DB6824
:101F5C0003F01003102B1BD17B681B686FF0100271
:101F6C001A617B6808221A777B681B68DB6903F4AB
:101F7C004073002B03D0786800F036F905E07868E0
:101F8C0000F029F9786800F038F97B6800221A779C
:101F9C007B681B681B6903F00103012B0ED17B6866
:101FAC001B68DB6803F00103012B07D17B681B68FE
:101FBC006FF001021A617868FEF7ECFA7B681B6817
:101FCC001B6903F08003802B0ED17B681B68DB68D8
:101FDC0003F08003802B07D17B681B686FF08002B5
:101FEC001A61786800F07BFA7B681B681B6903F048
:101FFC004003402B0ED17B681B68DB6803F0400369
:10200C00402B07D17B681B686FF040021A6178681F
:10201C0000F0FCF87B681B681B6903F02003202B85
:10202C000ED17B681B68DB6803F02003202B07D1E3
:10203C007B681B686FF020021A61786800F046FA22
:10204C0000BF0837BD4680BD80B584B000AF786056
:10205C0039600023FB737B6893F83C30012B01D172
:10206C000223B4E07B68012283F83C207B680222C7
:10207C0083F83D207B681B689B68BB60BB6823F0C2
:10208C007703BB60BB6823F47F43BB607B681B6832
:10209C00BA689A603B681B68B3F5005F3ED0B3F535
:1020AC00005F00F28780B3F5805F00F08680B3F5A7
:1020BC00805F7FD8702B1AD0702B7BD8602B50D0C0
:1020CC00602B77D8502B3CD0502B73D8402B58D04A
:1020DC00402B6FD8302B64D0302B6BD8202B60D09A
:1020EC00202B67D8002B5CD0102B5AD062E07B6879
:1020FC0018683B6899683B685A683B68DB6800F075
:10210C0068F97B681B689B68BB60BB6843F077030E
:10211C00BB607B681B68BA689A604FE07B68186884
:10212C003B6899683B685A683B68DB6800F051F97A
:10213C007B681B689A687B681B6842F480429A60D3
:10214C003CE07B6818683B6859683B68DB681A465A
:10215C0000F0C8F87B681B685021184600F01FF986
:10216C002CE07B6818683B6859683B68DB681A464A
:10217C0000F0E6F87B681B686021184600F00FF948
:10218C001CE07B6818683B6859683B68DB681A463A
:10219C0000F0A8F87B681B684021184600F0FFF897
:1021AC000CE07B681A683B681B681946104600F007
:1021BC00F6F803E00123FB7300E000BF7B6801220B
:1021CC0083F83D207B68002283F83C20FB7B18467B
:1021DC001037BD4680BD80B483B000AF786000BFBF
:1021EC000C37BD4680BC704780B483B000AF7860BC
:1021FC0000BF0C37BD4680BC704780B483B000AFC5
:10220C00786000BF0C37BD4680BC704780B483B08B
:10221C0000AF786000BF0C37BD4680BC7047000033
:10222C0080B485B000AF786039607B681B68FB6058
:10223C007B68294A93420BD07B68B3F1804F07D05F
:10224C007B68264A934203D07B68254A934208D187
:10225C00FB6823F07003FB603B685B68FA68134310
:10226C00FB607B681C4A93420BD07B68B3F1804FB8
:10227C0007D07B68194A934203D07B68184A934273
:10228C0008D1FB6823F44073FB603B68DB68FA6899
:10229C001343FB60FB6823F080023B685B691343CC
:1022AC00FB607B68FA681A603B689A687B68DA6244
:1022BC003B681A687B689A627B68074A934203D131
:1022CC003B681A697B681A637B6801225A6100BFFC
:1022DC001437BD4680BC7047002C01400004004000
:1022EC000008004080B487B000AFF860B9607A6035
:1022FC00FB681B6A7B61FB681B6A23F00102FB68AD
:10230C001A62FB689B693B613B6923F0F0033B61FC
:10231C007B681B013A6913433B617B6923F00A0319
:10232C007B617A69BB6813437B61FB683A699A618C
:10233C00FB687A691A6200BF1C37BD4680BC7047C7
:10234C0080B487B000AFF860B9607A60FB681B6A34
:10235C007B61FB681B6A23F01002FB681A62FB6846
:10236C009B693B613B6923F470433B617B681B03B6
:10237C003A6913433B617B6923F0A0037B61BB6823
:10238C001B017A6913437B61FB683A699A61FB68AC
:10239C007A691A6200BF1C37BD4680BC704780B496
:1023AC0085B000AF786039607B689B68FB60FB6828
:1023BC0023F07003FB603A68FB68134343F0070398
:1023CC00FB607B68FA689A6000BF1437BD4680BC1E
:1023DC00704780B487B000AFF860B9607A603B603A
:1023EC00FB689B687B617B6923F47F437B613B6863
:1023FC001A027B681A43BB6813437A6913437B61E7
:10240C00FB687A699A6000BF1C37BD4680BC704778
:10241C0080B485B000AF786039607B6893F83C304D
:10242C00012B01D1022346E07B68012283F83C207A
:10243C007B68022283F83D207B681B685B68FB602D
:10244C007B681B689B68BB60FB6823F07003FB60B8
:10245C003B681B68FA681343FB607B681B68FA686F
:10246C005A607B681B68164A93420ED07B681B68C7
:10247C00B3F1804F09D07B681B68124A934204D099
:10248C007B681B68104A93420CD1BB6823F0800315
:10249C00BB603B685B68BA681343BB607B681B68B6
:1024AC00BA689A607B68012283F83D207B68002221
:1024BC0083F83C20002318461437BD4680BC704777
:1024CC00002C0140000400400008004080B483B0A0
:1024DC0000AF786000BF0C37BD4680BC704780B43D
:1024EC0083B000AF786000BF0C37BD4680BC70472E
:1024FC0003460244934200D1704703F8011BF9E7ED
:10250C0070B500260C4D0D4C641BA410A64209D1CD
:10251C0000F01AF800260A4D0A4C641BA410A642BF
:10252C0005D170BD55F8043B98470136EEE755F8D8
:10253C00043B98470136F2E79025000890250008E7
:10254C009025000894250008F8B500BFF8BC08BC1D
:10255C009E467047F8B500BFF8BC08BC9E46704755
:10256C000000000000000000010203040607080937
:10257C0002030405060708090A0B0C0D0E0F1010B8
:04258C000102000048
:04259000310100080D
:042594000D0100082D
:10259800000801400008014000080140000C01400B
:1025A8000800040000040800010000000100000009
:1025B800010000000100000001000000010000000F
:1025C80001000000010000000100000001000000FF
:1025D80001000000010000000100000001000000EF
:1025E8000100000001000000F4010000F4010000F7
:1025F800F4010000F40100000024F40001000100CF
:102608000100100002000200000C0140001001400F
:102618000010014000080140000801400008014086
:08262800100000000100000099
:0400000508000E8160
:00000001FF
