:020000040800F2
:10000000005000208D100008FD0A0008030B0008B6
:10001000090B00080F0B0008150B0008000000007A
:100020000000000000000000000000001B0B0008A2
:10003000270B000800000000330B00083F0B0008EE
:10004000D5100008D5100008D5100008D5100008FC
:10005000D5100008D5100008D5100008D5100008EC
:10006000D5100008D5100008D5100008D5100008DC
:10007000D5100008D5100008D5100008D5100008CC
:10008000D5100008D5100008D5100008D5100008BC
:10009000D5100008D5100008D5100008D5100008AC
:1000A000D5100008D5100008D5100008D51000089C
:1000B0004D0B0008D5100008D5100008D510000819
:1000C000D5100008D5100008D5100008D51000087C
:1000D000D5100008D5100008D5100008D51000086C
:1000E000D5100008D5100008D51000080000000049
:1000F0000000000000000000000000000000000000
:0C01000000000000000000005FF808F1A3
:10010C0010B5054C237833B9044B13B10448AFF345
:10011C0000800123237010BDA80000200000000007
:10012C005C27000808B5034B1BB103490348AFF328
:10013C00008008BD00000000AC0000205C27000817
:10014C0080B483B000AF7860094A7B6852F82330E2
:10015C00012B06D1064A7B68002142F823100123AB
:10016C0000E0002318460C37BD4680BC704700BF2A
:10017C00C400002080B483B000AF7860044A7B6870
:10018C00012142F8231000BF0C37BD4680BC7047DC
:10019C00C400002080B582B000AF7860374A7B681D
:1001AC0052F8232036497B6841F82320354A7B6876
:1001BC0052F8232031497B6841F82320324A7B686E
:1001CC0052F8232031497B6831F813301946104618
:1001DC0001F070FA034619462A4A7B6842F823104C
:1001EC00274A7B6852F8232024497B6851F8233036
:1001FC009A423FD1214A7B6852F8232021497B68DF
:10020C0051F823309A4235D1214A7B6852F8232089
:10021C001C497B6851F823309A4217D0194A7B68E5
:10022C0052F823201A497B6841F82320154A7B6831
:10023C0052F82330002B1DD17868FFF79BFF154A2D
:10024C007B684FF4FA7142F8231013E0114A7B6873
:10025C0052F823305A1E0F497B6841F823200D4A6F
:10026C007B6852F82330002B04DC094A7B6801219F
:10027C0042F8231000BF0837BD4680BD280000207F
:10028C001800002038000020000000201000002082
:10029C00480000205800002080B584B000AF786082
:1002AC005D4A7B6852F823205C4B83FB0213591187
:1002BC00D317CB1A642101FB03F3D31A002B1CD1E7
:1002CC00554A7B6852F82330544A82FB0312521170
:1002DC00DB17D31AFB607B68002B0ED1FA68504BEE
:1002EC0083FB02139910D317C91A0B469B000B44BE
:1002FC005B00D11A084600F01BFD4A4A7B6852F895
:10030C002330013B032B7AD801A252F823F000BF13
:10031C002D0300087B030008AB030008DB03000877
:10032C00786800F01DFC7B68002B0ED13D4A7B6881
:10033C00022142F823103C4B1B68642202FB03F39E
:10034C001946786800F02CFB5BE07B68012B58D1D8
:10035C00344A7B68032142F82310344B1B68642217
:10036C0002FB03F31946786800F01AFB49E0786841
:10037C0000F030FC2E4A7B6852F82330012B42D11E
:10038C00284A7B68032142F82310284B1B686422FF
:10039C0002FB03F31946786800F002FB33E078683F
:1003AC0000F052FC224A7B6852F82330012B2CD1EE
:1003BC001C4A7B68042142F823101E4B1B686422E4
:1003CC0002FB03F31946786800F0EAFA1DE078683E
:1003DC0000F074FC164A7B6852F82330012B16D1BE
:1003EC00104A7B68022142F823100F4B1B686422D1
:1003FC0002FB03F31946786800F0D2FA07E000BF5D
:10040C0006E000BF04E000BF02E000BF00E000BF58
:10041C0000BF1037BD4680BDD80000201F85EB51B2
:10042C006766666668000020740000207C0000206F
:10043C00E40000207800002080B582B000AF786026
:10044C00002000F08DFB012000F08AFB054A7B6840
:10045C0013601921022000F0A3FA00BF0837BD4633
:10046C0080BD00BF7000002080B582B000AF786006
:10047C007A68094B83FB02139910D317C91A0B46E0
:10048C009B000B445B00D11A084600F051FC00BFE6
:10049C000837BD4680BD00BF6766666680B500AF95
:1004AC00934B1B680B3B032B00F2178101A252F8F4
:1004BC0023F000BFD1040008FB0400089F050008CE
:1004CC00410600080020FFF7E7FE0120FFF7E4FEDD
:1004DC000020FFF735FE0346012B40F00081854BD1
:1004EC001B68854A13600C20FFF7A6FFF7E0824BD0
:1004FC001B681846FFF7B8FF0020FFF721FE0346E4
:10050C00012B06D17D4B1B687B4A13600D20FFF736
:10051C0093FF0120FFF714FE0346012B0BD1764B02
:10052C001B680133744A1360734B1B68092B02DD83
:10053C00714B01221A600220FFF702FE0346012BC9
:10054C000BD16D4B1B68013B6B4A13606A4B1B68EC
:10055C00002B02DC684B09221A600320FFF7F0FD28
:10056C000346012B03D1644B1B68624A1360644B36
:10057C009B68012B40F0B5800121624801F0C9F85D
:10058C000121614801F0C5F81921022000F008FA98
:10059C00A7E0594B1B681846FFF766FF0020FFF7D2
:1005AC00CFFD0346012B06D1584B1B68524A1360F2
:1005BC000E20FFF741FF0120FFF7C2FD0346012B80
:1005CC000BD14D4B1B6801334B4A13604A4B1B68D4
:1005DC00092B02DD484B01221A600220FFF7B0FD07
:1005EC000346012B0BD1444B1B68013B424A136061
:1005FC00414B1B68002B02DC3F4B09221A60032085
:10060C00FFF79EFD0346012B03D13B4B1B683B4A76
:10061C0013603B4B9B68012B65D10221394801F0DB
:10062C0078F80221384801F074F81921022000F002
:10063C00B7F958E0304B1B681846FFF715FF002040
:10064C00FFF77EFD0346012B08D1314B01221A60C6
:10065C002F4B01225A600B20FFF7EEFE0120FFF713
:10066C006FFD0346012B0BD1234B1B680133224A30
:10067C001360214B1B68092B02DD1F4B01221A60F2
:10068C000220FFF75DFD0346012B0BD11A4B1B68B3
:10069C00013B194A1360184B1B68002B02DC164BEC
:1006AC0009221A600320FFF74BFD0346012B03D1EF
:1006BC00114B1B68154A1360114B9B68012B14D10D
:1006CC001021104801F025F801210F4801F021F804
:1006DC001921022000F064F907E000BF06E000BF1A
:1006EC0004E000BF02E000BF00E000BF00BF80BD1F
:1006FC007000002074000020D4000020780000203E
:10070C00E400002000080140001001407C000020A3
:10071C006800002080B500AF00F0D8FC00F00CF8A9
:10072C0000F092F800F044F8024801F037FCFFF7B3
:10073C00B5FEFCE7F000002080B590B000AF07F1EB
:10074C00180328220021184601F0FAFF3B1D002255
:10075C001A605A609A60DA601A610223BB61012345
:10076C00BB621023FB6200237B6307F1180318465E
:10077C0000F0E8FF0346002B01D000F00BF90F232B
:10078C007B600023BB600023FB6000233B610023E4
:10079C007B613B1D0021184601F054FA0346002BE7
:1007AC0001D000F0F7F800BF4037BD4680BD000017
:1007BC0080B586B000AF07F1080300221A605A60BA
:1007CC009A60DA603B4600221A605A601D4B4FF06B
:1007DC0080421A601B4B41F63F725A60194B002243
:1007EC009A60184B0922DA60164B00221A61154BDD
:1007FC0000229A61134801F081FB0346002B01D0C3
:10080C0000F0C8F84FF48053BB6007F10803194699
:10081C000C4801F01DFD0346002B01D000F0BAF886
:10082C0000233B6000237B603B461946054801F0E2
:10083C00F3FE0346002B01D000F0ACF800BF1837D4
:10084C00BD4680BDF000002080B588B000AF07F138
:10085C00100300221A605A609A60DA603E4B9B6962
:10086C003D4A43F0100393613B4B9B6903F010032B
:10087C00FB60FB68384B9B69374A43F00403936178
:10088C00354B9B6903F00403BB60BB68324B9B691F
:10089C00314A43F0080393612F4B9B6903F0080323
:1008AC007B607B68002283212C4800F01AFF002219
:1008BC0040F2F3212A4800F014FF002240F24121BB
:1008CC00284800F00EFF83233B6101237B6100234A
:1008DC00BB610223FB6107F1100319461F4800F0AE
:1008EC0065FD40F2F3233B6101237B610023BB6177
:1008FC000223FB6107F110031946194800F056FD5D
:10090C0040F20C433B6100237B610123BB6107F187
:10091C0010031946124800F049FD40F241233B6197
:10092C0001237B610023BB610223FB6107F11003F0
:10093C0019460C4800F03AFD08233B6100237B610B
:10094C000123BB6107F110031946064800F02EFD88
:10095C0000BF2037BD4680BD001002400010014092
:10096C0000080140000C014080B582B000AF7860F7
:10097C0000F02EF80020FFF70DFC0120FFF70AFC19
:10098C000220FFF707FC0320FFF704FC00BF083729
:10099C00BD4680BD80B400AF72B600BFFEE700005C
:1009AC0080B483B000AF7860396007497B683A68DF
:1009BC0041F82320054A7B68002142F8231000BF30
:1009CC000C37BD4680BC7047D8000020E4000020E6
:1009DC0080B400AF194B1B68002B0BDD174B1B6849
:1009EC00013B164A1360154B1B68002B02DC144BA1
:1009FC0001221A60114B5B68002B0BDD0F4B5B68FF
:100A0C00013B0E4A53600D4B5B68002B02DC0C4B18
:100A1C0001225A60094B9B68002B0BDD074B9B682E
:100A2C00013B064A9360054B9B68002B02DC044B90
:100A3C0001229A6000BFBD4680BC7047D8000020E0
:100A4C00E400002080B485B000AF154B9B69144ABC
:100A5C0043F001039361124B9B6903F00103BB60EC
:100A6C00BB680F4BDB690E4A43F08053D3610C4BD0
:100A7C00DB6903F080537B607B680A4B5B68FB602F
:100A8C00FB6823F0E063FB60FB6843F08063FB6072
:100A9C00044AFB68536000BF1437BD4680BC7047E6
:100AAC00001002400000014080B584B000AF7860B7
:100ABC007B681B68B3F1804F13D10C4BDB690B4A7D
:100ACC0043F00103D361094BDB6903F00103FB60C5
:100ADC00FB68002200211C2000F031FC1C2000F0DF
:100AEC004AFC00BF1037BD4680BD00BF001002405D
:100AFC0080B400AFFEE780B400AFFEE780B400AF77
:100B0C00FEE780B400AFFEE780B400AFFEE780B430
:100B1C0000AF00BFBD4680BC704780B400AF00BFC3
:100B2C00BD4680BC704780B400AF00BFBD4680BCE2
:100B3C00704780B500AF00F00FFB00BF80BD000018
:100B4C0080B500AF024801F07BFA00BF80BD00BF4A
:100B5C00F000002080B400AF00BFBD4680BC7047E1
:100B6C0080B582B000AF78607B685B00154A52F8A4
:100B7C002300154A7B6832F813300122194600F025
:100B8C00B0FD7B685B0001330E4A52F823000F4A1C
:100B9C007B6832F813300122194600F0A2FD7B6805
:100BAC005B000133074A52F82300094A7B6832F88C
:100BBC0013300122194600F094FD00BF0837BD46E2
:100BCC0080BD00BF90000020840000208800002021
:100BDC008C00002080B582B000AF78607B685B0031
:100BEC00154A52F82300154A7B6832F8133000225C
:100BFC00194600F076FD7B685B0001330E4A52F813
:100C0C0023000F4A7B6832F813300122194600F09A
:100C1C0068FD7B685B000133074A52F82300094AE0
:100C2C007B6832F813300122194600F05AFD00BFE0
:100C3C000837BD4680BD00BF900000208400002016
:100C4C00880000208C00002080B582B000AF786056
:100C5C007B685B00154A52F82300154A7B6832F812
:100C6C0013300122194600F03CFD7B685B00013318
:100C7C000E4A52F823000F4A7B6832F813300022D8
:100C8C00194600F02EFD7B685B000133074A52F8D1
:100C9C002300094A7B6832F813300122194600F010
:100CAC0020FD00BF0837BD4680BD00BF900000206E
:100CBC0084000020880000208C00002080B582B0C9
:100CCC0000AF78607B685B00154A52F82300154A28
:100CDC007B6832F813300122194600F002FD7B6864
:100CEC005B0001330E4A52F823000F4A7B6832F83E
:100CFC0013300122194600F0F4FC7B685B000133D1
:100D0C00074A52F82300094A7B6832F81330002254
:100D1C00194600F0E6FC00BF0837BD4680BD00BF99
:100D2C009000002084000020880000208C0000200F
:100D3C0080B582B000AF78607B68092B00F294819B
:100D4C0001A252F823F000BF7D0D0008C90D000868
:100D5C00150E0008610E0008AD0E0008F90E000813
:100D6C00450F0008910F0008DD0F0008291000083E
:100D7C0000224FF40071BF4800F0B3FC0022802128
:100D8C00BD4800F0AEFC00224021BC4800F0A9FC9C
:100D9C0000228021B74800F0A4FC00224021B54875
:100DAC0000F09FFC00222021B24800F09AFC0122A6
:100DBC004FF40071B14800F094FC56E101224FF45D
:100DCC000071AC4800F08DFC00228021AA4800F094
:100DDC0088FC00224021A94800F083FC01228021DC
:100DEC00A44800F07EFC01224021A24800F079FCCE
:100DFC00012220219F4800F074FC01224FF4007165
:100E0C009E4800F06EFC30E100224FF400719948CE
:100E1C0000F067FC00228021974800F062FC012260
:100E2C004021964800F05DFC00228021914800F0A2
:100E3C0058FC002240218F4800F053FC0122202155
:100E4C008C4800F04EFC00224FF400718B4800F0EF
:100E5C0048FC0AE100224FF40071864800F041FC86
:100E6C0000228021844800F03CFC00224021834871
:100E7C0000F037FC002280217E4800F032FC012279
:100E8C0040217C4800F02DFC01222021794800F003
:100E9C0028FC00224FF40071784800F022FCE4E0BA
:100EAC0001224FF40071734800F01BFC00228021DA
:100EBC00714800F016FC00224021704800F011FC33
:100ECC00012280216B4800F00CFC01224021694872
:100EDC0000F007FC00222021664800F002FC0022F2
:100EEC004FF40071654800F0FCFBBEE000224FF4AB
:100EFC000071604800F0F5FB012280215E4800F093
:100F0C00F0FB002240215D4800F0EBFB0022802129
:100F1C00584800F0E6FB01224021564800F0E1FB66
:100F2C0000222021534800F0DCFB00224FF400711A
:100F3C00524800F0D6FB98E000224FF400714D4867
:100F4C0000F0CFFB012280214B4800F0CAFB0022AD
:100F5C0040214A4800F0C5FB00228021454800F0A2
:100F6C00C0FB00224021434800F0BBFB00222021A3
:100F7C00404800F0B6FB00224FF400713F4800F0EF
:100F8C00B0FB72E000224FF400713A4800F0A9FB6C
:100F9C0000228021384800F0A4FB00224021374871
:100FAC0000F09FFB01228021324800F09AFB0122C5
:100FBC004021304800F095FB012220212D4800F003
:100FCC0090FB01224FF400712C4800F08AFB4CE09E
:100FDC0000224FF40071274800F083FB002280218F
:100FEC00254800F07EFB00224021244800F079FBCC
:100FFC00002280211F4800F074FB002240211D4874
:10100C0000F06FFB002220211A4800F06AFB00223E
:10101C004FF40071194800F064FB26E000224FF4F5
:10102C000071144800F05DFB00228021124800F092
:10103C0058FB00224021114800F053FB0022802174
:10104C000C4800F04EFB012240210A4800F049FBFD
:10105C0000222021074800F044FB00224FF40071CD
:10106C00064800F03EFB00E000BF00BF0837BD465D
:10107C0080BD00BF0008014000100140000C014081
:10108C00FFF768FD0B480C490C4A002302E0D458CA
:10109C00C4500433C4188C42F9D3094A094C0023B8
:1010AC0001E013600432A242FBD301F025FBFFF7F1
:1010BC0031FB704700000020A8000020A02700088A
:1010CC00A80000203C010020FEE7000080B500AF26
:1010DC00084B1B68074A43F010031360032000F011
:1010EC0023F90F2000F008F8FFF7ACFC002318469A
:1010FC0080BD00BF0020024080B582B000AF786098
:10110C00124B1A68124B1B7819464FF47A73B3FBC7
:10111C00F1F3B2FBF3F3184600F03BF90346002B56
:10112C0001D001230EE07B680F2B0AD800227968CE
:10113C004FF0FF3000F003F9064A7B681360002380
:10114C0000E0012318460837BD4680BD8000002012
:10115C00A4000020A000002080B400AF054B1B7839
:10116C001A46054B1B681344034A136000BFBD4667
:10117C0080BC7047A40000203801002080B400AF70
:10118C00024B1B681846BD4680BC704738010020D6
:10119C0080B485B000AF78607B6803F00703FB6018
:1011AC000C4BDB68BB60BA684FF6FF031340BB60A7
:1011BC00FB681A02BB68134343F0BF6343F400336C
:1011CC00BB60044ABB68D36000BF1437BD4680BC0B
:1011DC00704700BF00ED00E080B400AF044BDB684B
:1011EC001B0A03F007031846BD4680BC704700BFBE
:1011FC0000ED00E080B483B000AF0346FB7197F9BB
:10120C000730002B0BDBFB7903F01F02064997F923
:10121C0007305B09012000FA02F241F8232000BFDD
:10122C000C37BD4680BC704700E100E080B483B051
:10123C0000AF03463960FB7197F90730002B0ADBCE
:10124C003B68DAB20C4997F907301201D2B20B4461
:10125C0083F800230AE03B68DAB20849FB7903F013
:10126C000F03043B1201D2B20B441A7600BF0C37A9
:10127C00BD4680BC704700BF00E100E000ED00E01F
:10128C0080B489B000AFF860B9607A60FB6803F095
:10129C000703FB61FB69C3F10703042B28BF04237D
:1012AC00BB61FB690433062B02D9FB69033B00E0ED
:1012BC0000237B614FF0FF32BB6902FA03F3DA4380
:1012CC00BB681A407B699A404FF0FF317B6901FA89
:1012DC0003F3D9437B680B40134318462437BD46B0
:1012EC0080BC704780B582B000AF78607B68013BF2
:1012FC00B3F1807F01D301230FE00A4A7B68013BE5
:10130C0053600F214FF0FF30FFF790FF054B002289
:10131C009A60044B07221A60002318460837BD4612
:10132C0080BD00BF10E000E080B582B000AF7860F7
:10133C007868FFF72DFF00BF0837BD4680BD80B52C
:10134C0086B000AF0346B9607A60FB7300237B6103
:10135C00FFF742FF78617A68B9687869FFF790FF08
:10136C00024697F90F3011461846FFF75FFF00BF92
:10137C001837BD4680BD80B582B000AF0346FB7107
:10138C0097F907301846FFF735FF00BF0837BD4601
:10139C0080BD80B582B000AF78607868FFF7A2FF9F
:1013AC00034618460837BD4680BD000080B48BB09C
:1013BC0000AF7860396000237B6200233B6269E1F7
:1013CC0001227B6A02FA03F3FB613B681B68FA6932
:1013DC001340BB61BA69FB699A4240F058813B6883
:1013EC005B689A4A93425ED0984A934275D8984A61
:1013FC00934258D0964A93426FD8964A934252D011
:10140C00944A934269D8944A93424CD0924A93425C
:10141C0063D8924A934246D0904A93425DD8122B9D
:10142C002AD8122B59D801A252F823F0B314000871
:10143C008D1400089F140008E1140008E71400083C
:10144C00E7140008E7140008E7140008E714000884
:10145C00E7140008E7140008E7140008E714000874
:10146C00E7140008E7140008E7140008E714000864
:10147C0095140008A9140008794A934213D02CE063
:10148C003B68DB683B6229E03B68DB6804333B620A
:10149C0024E03B68DB6808333B621FE03B68DB6899
:1014AC000C333B621AE03B689B68002B02D104238F
:1014BC003B6213E03B689B68012B05D108233B6220
:1014CC007B68FA691A6109E008233B627B68FA6958
:1014DC005A6103E000233B6200E000BFBB69FF2BB5
:1014EC0001D87B6801E07B6804337B61BB69FF2B0F
:1014FC0002D87B6A9B0002E07B6A083B9B003B6145
:10150C007B691A680F213B6901FA03F3DB431A402C
:10151C00396A3B6901FA03F31A437B691A603B6829
:10152C005B6803F08053002B00F0B1804D4B9B693E
:10153C004C4A43F0010393614A4B9B6903F001034E
:10154C00BB60BB68484A7B6A9B08023352F8233065
:10155C00FB607B6A03F003039B000F2202FA03F388
:10156C00DB43FA681340FB607B68404A934213D01C
:10157C007B683F4A93420DD07B683E4A934207D02A
:10158C007B683D4A934201D1032306E0042304E027
:10159C00022302E0012300E000237A6A02F0030236
:1015AC0092009340FA681343FB602F497B6A9B08B7
:1015BC000233FA6841F823203B685B6803F480131C
:1015CC00002B06D02D4B9A682C49BB6913438B60BA
:1015DC0006E02A4B9A68BB69DB43284913408B60B1
:1015EC003B685B6803F40013002B06D0234BDA68CE
:1015FC002249BB691343CB6006E0204BDA68BB6918
:10160C00DB431E491340CB603B685B6803F400333B
:10161C00002B06D0194B5A681849BB6913434B6011
:10162C0006E0164B5A68BB69DB43144913404B6008
:10163C003B685B6803F48033002B21D00F4B1A6896
:10164C000E49BB6913430B6021E000BF0000321050
:10165C0000003110000022100000211000001210B8
:10166C000000111000100240000001400008014071
:10167C00000C014000100140001401400004014026
:10168C000B4B1A68BB69DB43094913400B607B6A3F
:10169C0001337B623B681A687B6A22FA03F3002BE6
:1016AC007FF48EAE00BF00BF2C37BD4680BC7047A8
:1016BC000004014080B485B000AF78600B467B809D
:1016CC007B689A687B881340002B02D00123FB7344
:1016DC0001E00023FB73FB7B18461437BD4680BC2E
:1016EC00704780B483B000AF78600B467B801346A4
:1016FC007B707B78002B03D07A887B681A6103E0BF
:10170C007B881A047B681A6100BF0C37BD4680BC0D
:10171C00704780B485B000AF78600B467B807B68E7
:10172C00DB68FB607A88FB6813401A04FB68D943BA
:10173C007B880B401A437B681A6100BF1437BD4687
:10174C0080BC704780B586B000AF78607B68002B9A
:10175C0001D101236CE27B681B6803F00103002BB1
:10176C0000F08780924B5B6803F00C03042B0CD0C9
:10177C008F4B5B6803F00C03082B12D18C4B5B680E
:10178C0003F48033B3F5803F0BD1894B1B6803F412
:10179C000033002B6CD07B685B68002B68D1012375
:1017AC0046E27B685B68B3F5803F06D1804B1B68D3
:1017BC007F4A43F4803313602EE07B685B68002B18
:1017CC000CD17B4B1B687A4A23F480331360784B23
:1017DC001B68774A23F4802313601DE07B685B68E9
:1017EC00B3F5A02F0CD1724B1B68714A43F48023C4
:1017FC0013606F4B1B686E4A43F4803313600BE02D
:10180C006B4B1B686A4A23F480331360684B1B686C
:10181C00674A23F4802313607B685B68002B13D02A
:10182C00FFF7ACFC386108E0FFF7A8FC02463B6907
:10183C00D31A642B01D90323FAE15D4B1B6803F423
:10184C000033002BF0D014E0FFF798FC386108E06F
:10185C00FFF794FC02463B69D31A642B01D903238E
:10186C00E6E1534B1B6803F40033002BF0D100E08E
:10187C0000BF7B681B6803F00203002B63D04C4B4A
:10188C005B6803F00C03002B0BD0494B5B6803F037
:10189C000C03082B1CD1464B5B6803F48033002BE4
:1018AC0016D1434B1B6803F00203002B05D07B6859
:1018BC001B69012B01D00123BAE13D4B1B6823F0BE
:1018CC00F8027B685B69DB00394913430B603AE033
:1018DC007B681B69002B20D0364B01221A60FFF766
:1018EC004DFC386108E0FFF749FC02463B69D31A0E
:1018FC00022B01D903239BE12D4B1B6803F0020340
:10190C00002BF0D02A4B1B6823F0F8027B685B6934
:10191C00DB00274913430B6015E0264B00221A60AD
:10192C00FFF72CFC386108E0FFF728FC02463B6906
:10193C00D31A022B01D903237AE11D4B1B6803F048
:10194C000203002BF0D17B681B6803F00803002B0B
:10195C003AD07B689B69002B19D0174B01221A6077
:10196C00FFF70CFC386108E0FFF708FC02463B6906
:10197C00D31A022B01D903235AE10D4B5B6A03F0F6
:10198C000203002BF0D0012000F09AFA1CE00A4B65
:10199C0000221A60FFF7F2FB38610FE0FFF7EEFB55
:1019AC0002463B69D31A022B08D9032340E100BF3E
:1019BC000010024000004242800442429E4B5B6A8F
:1019CC0003F00203002BE9D17B681B6803F00403CE
:1019DC00002B00F0A6800023FB75974BDB6903F00E
:1019EC008053002B0DD1944BDB69934A43F0805309
:1019FC00D361914BDB6903F08053BB60BB6801235F
:101A0C00FB758E4B1B6803F48073002B18D18B4B2A
:101A1C001B688A4A43F480731360FFF7AFFB38618D
:101A2C0008E0FFF7ABFB02463B69D31A642B01D9E4
:101A3C000323FDE0814B1B6803F48073002BF0D073
:101A4C007B68DB68012B06D17B4B1B6A7A4A43F01F
:101A5C00010313622DE07B68DB68002B0CD1764B05
:101A6C001B6A754A23F001031362734B1B6A724A9B
:101A7C0023F0040313621CE07B68DB68052B0CD19C
:101A8C006D4B1B6A6C4A43F0040313626A4B1B6A6E
:101A9C00694A43F0010313620BE0674B1B6A664A09
:101AAC0023F001031362644B1B6A634A23F00403A3
:101ABC0013627B68DB68002B15D0FFF75FFB386186
:101ACC000AE0FFF75BFB02463B69D31A41F288320E
:101ADC00934201D90323ABE0574B1B6A03F002037B
:101AEC00002BEED014E0FFF749FB38610AE0FFF75A
:101AFC0045FB02463B69D31A41F28832934201D925
:101B0C00032395E04C4B1B6A03F00203002BEED130
:101B1C00FB7D012B05D1484BDB69474A23F08053F1
:101B2C00D3617B68DB69002B00F08180424B5B68E2
:101B3C0003F00C03082B61D07B68DB69022B46D1C8
:101B4C003F4B00221A60FFF719FB386108E0FFF7E2
:101B5C0015FB02463B69D31A022B01D9032367E01C
:101B6C00354B1B6803F00073002BF0D17B681B6AAC
:101B7C00B3F5803F08D1304B5B6823F400327B68AF
:101B8C009B682D4913434B602B4B5B6823F47412F9
:101B9C007B68196A7B685B6A0B43274913434B606C
:101BAC00274B01221A60FFF7E9FA386108E0FFF7CA
:101BBC00E5FA02463B69D31A022B01D9032337E01D
:101BCC001D4B1B6803F00073002BF0D02FE01C4B57
:101BDC0000221A60FFF7D2FA386108E0FFF7CEFA5C
:101BEC0002463B69D31A022B01D9032320E0124B86
:101BFC001B6803F00073002BF0D118E07B68DB69E5
:101C0C00012B01D1012313E00B4B5B68FB60FB68DC
:101C1C0003F480327B681B6A9A4206D1FB6803F49A
:101C2C0070127B685B6A9A4201D0012300E00023AA
:101C3C0018461837BD4680BD0010024000700040A9
:101C4C006000424280B584B000AF786039607B6838
:101C5C00002B01D10123D0E06A4B1B6803F0070372
:101C6C003A689A4210D9674B1B6823F00702654902
:101C7C003B6813430B60634B1B6803F007033A6824
:101C8C009A4201D00123B8E07B681B6803F0020381
:101C9C00002B20D07B681B6803F00403002B05D0BD
:101CAC00594B5B68584A43F4E06353607B681B688C
:101CBC0003F00803002B05D0534B5B68524A43F4E6
:101CCC0060535360504B5B6823F0F0027B689B6859
:101CDC004D4913434B607B681B6803F00103002BD9
:101CEC0040D07B685B68012B07D1474B1B6803F422
:101CFC000033002B15D101237FE07B685B68022B3E
:101D0C0007D1414B1B6803F00073002B09D1012351
:101D1C0073E03D4B1B6803F00203002B01D1012340
:101D2C006BE0394B5B6823F003027B685B683649D8
:101D3C0013434B60FFF722FAF8600AE0FFF71EFA34
:101D4C000246FB68D31A41F28832934201D903232D
:101D5C0053E02D4B5B6803F00C027B685B689B00C7
:101D6C009A42EBD1274B1B6803F007033A689A425F
:101D7C0010D2244B1B6823F0070222493B68134303
:101D8C000B60204B1B6803F007033A689A4201D0A2
:101D9C00012332E07B681B6803F00403002B08D09E
:101DAC00194B5B6823F4E0627B68DB6816491343CC
:101DBC004B607B681B6803F00803002B09D0124BA7
:101DCC005B6823F460527B681B69DB000E4913438C
:101DDC004B6000F021F802460B4B5B681B0903F0CB
:101DEC000F030A49CB5C22FA03F3094A1360094B2F
:101DFC001B681846FFF780F9002318461037BD46BC
:101E0C0080BD00BF00200240001002407427000873
:101E1C0080000020A000002080B487B000AF002319
:101E2C00FB600023BB6000237B6100237B600023ED
:101E3C003B611E4B5B68FB60FB6803F00C03042BDF
:101E4C0002D0082B03D027E0194B3B6127E0FB683D
:101E5C009B0C03F00F03174AD35C7B60FB6803F405
:101E6C008033002B10D0114B5B685B0C03F001032B
:101E7C00114AD35CBB607B680D4A02FB03F2BB6862
:101E8C00B2FBF3F37B6104E07B680C4A02FB03F3C7
:101E9C007B617B693B6102E0054B3B6100BF3B69A9
:101EAC0018461C37BD4680BC704700BF001002406E
:101EBC0000127A00842700089427000800093D00CE
:101ECC0080B485B000AF78600A4B1B680A4AA2FB4D
:101EDC0003235B0A7A6802FB03F3FB6000BFFB6819
:101EEC005A1EFA60002BF9D100BF00BF1437BD4653
:101EFC0080BC704780000020D34D621080B582B04A
:101F0C0000AF78607B68002B01D1012341E07B6836
:101F1C0093F83D30DBB2002B06D17B68002283F8AE
:101F2C003C207868FEF7C0FD7B68022283F83D20D8
:101F3C007B681A687B6804331946104600F074FA03
:101F4C007B68012283F846207B68012283F83E20BF
:101F5C007B68012283F83F207B68012283F84020B4
:101F6C007B68012283F841207B68012283F84220A0
:101F7C007B68012283F843207B68012283F844208C
:101F8C007B68012283F845207B68012283F83D2081
:101F9C00002318460837BD4680BD000080B485B0CC
:101FAC0000AF78607B6893F83D30DBB2012B01D039
:101FBC0001233AE07B68022283F83D207B681B6892
:101FCC00DA687B681B6842F00102DA607B681B6888
:101FDC00184A93420ED07B681B68B3F1804F09D02E
:101FEC007B681B68144A934204D07B681B68134AB5
:101FFC00934211D17B681B689B6803F00703FB605D
:10200C00FB68062B10D07B681B681A687B681B6802
:10201C0042F001021A6007E07B681B681A687B6853
:10202C001B6842F001021A60002318461437BD46A3
:10203C0080BC7047002C01400004004000080040A8
:10204C0080B582B000AF78607B681B681B6903F0B9
:10205C000203022B22D17B681B68DB6803F00203AE
:10206C00022B1BD17B681B686FF002021A617B6824
:10207C0001221A777B681B689B6903F00303002B12
:10208C0003D0786800F0B4F905E0786800F0A7F99F
:10209C00786800F0B6F97B6800221A777B681B68B9
:1020AC001B6903F00403042B22D17B681B68DB68DB
:1020BC0003F00403042B1BD17B681B686FF0040234
:1020CC001A617B6802221A777B681B689B6903F490
:1020DC004073002B03D0786800F08AF905E078682B
:1020EC0000F07DF9786800F08CF97B6800221A7793
:1020FC007B681B681B6903F00803082B22D17B68E3
:10210C001B68DB6803F00803082B1BD17B681B687A
:10211C006FF008021A617B6804221A777B681B68CF
:10212C00DB6903F00303002B03D0786800F060F93F
:10213C0005E0786800F053F9786800F062F97B6884
:10214C0000221A777B681B681B6903F01003102BA5
:10215C0022D17B681B68DB6803F01003102B1BD1AA
:10216C007B681B686FF010021A617B6808221A7773
:10217C007B681B68DB6903F44073002B03D0786821
:10218C0000F036F905E0786800F029F9786800F07D
:10219C0038F97B6800221A777B681B681B6903F08F
:1021AC000103012B0ED17B681B68DB6803F0010374
:1021BC00012B07D17B681B686FF001021A617868EC
:1021CC00FEF7D2FB7B681B681B6903F08003802B36
:1021DC000ED17B681B68DB6803F08003802B07D172
:1021EC007B681B686FF080021A61786800F07BFADC
:1021FC007B681B681B6903F04003402B0ED17B6886
:10220C001B68DB6803F04003402B07D17B681B681D
:10221C006FF040021A61786800F0FCF87B681B686C
:10222C001B6903F02003202B0ED17B681B68DB6835
:10223C0003F02003202B07D17B681B686FF0200272
:10224C001A61786800F046FA00BF0837BD4680BDB9
:10225C0080B584B000AF786039600023FB737B6875
:10226C0093F83C30012B01D10223B4E07B680122AE
:10227C0083F83C207B68022283F83D207B681B6836
:10228C009B68BB60BB6823F07703BB60BB6823F41F
:10229C007F43BB607B681B68BA689A603B681B68AD
:1022AC00B3F5005F3ED0B3F5005F00F28780B3F565
:1022BC00805F00F08680B3F5805F7FD8702B1AD0DA
:1022CC00702B7BD8602B50D0602B77D8502B3CD008
:1022DC00502B73D8402B58D0402B6FD8302B64D058
:1022EC00302B6BD8202B60D0202B67D8002B5CD0E8
:1022FC00102B5AD062E07B6818683B6899683B6881
:10230C005A683B68DB6800F068F97B681B689B685F
:10231C00BB60BB6843F07703BB607B681B68BA6823
:10232C009A604FE07B6818683B6899683B685A680C
:10233C003B68DB6800F051F97B681B689A687B6826
:10234C001B6842F480429A603CE07B6818683B68EA
:10235C0059683B68DB681A4600F0C8F87B681B6854
:10236C005021184600F01FF92CE07B6818683B6878
:10237C0059683B68DB681A4600F0E6F87B681B6816
:10238C006021184600F00FF91CE07B6818683B6868
:10239C0059683B68DB681A4600F0A8F87B681B6834
:1023AC004021184600F0FFF80CE07B681A683B6887
:1023BC001B681946104600F0F6F803E00123FB7386
:1023CC0000E000BF7B68012283F83D207B6800227F
:1023DC0083F83C20FB7B18461037BD4680BD80B48B
:1023EC0083B000AF786000BF0C37BD4680BC70472F
:1023FC0080B483B000AF786000BF0C37BD4680BCA2
:10240C00704780B483B000AF786000BF0C37BD4616
:10241C0080BC704780B483B000AF786000BF0C37CD
:10242C00BD4680BC7047000080B485B000AF7860BA
:10243C0039607B681B68FB607B68294A93420BD030
:10244C007B68B3F1804F07D07B68264A934203D058
:10245C007B68254A934208D1FB6823F07003FB602C
:10246C003B685B68FA681343FB607B681C4A9342C9
:10247C000BD07B68B3F1804F07D07B68194A93422D
:10248C0003D07B68184A934208D1FB6823F440734D
:10249C00FB603B68DB68FA681343FB60FB6823F066
:1024AC0080023B685B691343FB607B68FA681A60C7
:1024BC003B689A687B68DA623B681A687B689A6248
:1024CC007B68074A934203D13B681A697B681A639D
:1024DC007B6801225A6100BF1437BD4680BC70472F
:1024EC00002C0140000400400008004080B487B07C
:1024FC0000AFF860B9607A60FB681B6A7B61FB68AF
:10250C001B6A23F00102FB681A62FB689B693B6142
:10251C003B6923F0F0033B617B681B013A69134371
:10252C003B617B6923F00A037B617A69BB681343C7
:10253C007B61FB683A699A61FB687A691A6200BF31
:10254C001C37BD4680BC704780B487B000AFF860C4
:10255C00B9607A60FB681B6A7B61FB681B6A23F0BD
:10256C001002FB681A62FB689B693B613B6923F4B0
:10257C0070433B617B681B033A6913433B617B6986
:10258C0023F0A0037B61BB681B017A6913437B6159
:10259C00FB683A699A61FB687A691A6200BF1C375A
:1025AC00BD4680BC704780B485B000AF78603960A0
:1025BC007B689B68FB60FB6823F07003FB603A68E8
:1025CC00FB68134343F00703FB607B68FA689A606F
:1025DC0000BF1437BD4680BC704780B487B000AFD5
:1025EC00F860B9607A603B60FB689B687B617B69D3
:1025FC0023F47F437B613B681A027B681A43BB68F8
:10260C0013437A6913437B61FB687A699A6000BF54
:10261C001C37BD4680BC704780B485B000AF786075
:10262C0039607B6893F83C30012B01D1022346E0E2
:10263C007B68012283F83C207B68022283F83D20D2
:10264C007B681B685B68FB607B681B689B68BB6076
:10265C00FB6823F07003FB603B681B68FA6813434C
:10266C00FB607B681B68FA685A607B681B68164ABB
:10267C0093420ED07B681B68B3F1804F09D07B6806
:10268C001B68124A934204D07B681B68104A934221
:10269C000CD1BB6823F08003BB603B685B68BA68F5
:1026AC001343BB607B681B68BA689A607B68012225
:1026BC0083F83D207B68002283F83C2000231846D9
:1026CC001437BD4680BC7047002C0140000400400C
:1026DC000008004080B483B000AF786000BF0C37B6
:1026EC00BD4680BC704780B483B000AF786000BF3B
:1026FC000C37BD4680BC704770B500260C4D0D4C98
:10270C00641BA410A64209D100F022F800260A4D41
:10271C000A4C641BA410A64205D170BD55F8043BAD
:10272C0098470136EEE755F8043B98470136F2E737
:10273C009827000898270008982700089C2700086D
:10274C0003460244934200D1704703F8011BF9E79A
:10275C00F8B500BFF8BC08BC9E467047F8B500BF82
:08276C00F8BC08BC9E46704752
:10277400000000000000000001020304060708092D
:1027840002030405060708090A0B0C0D0E0F1010AE
:04279400010200003E
:042798003101000803
:04279C000D01000823
:1027A000000801400008014000080140000C014001
:1027B00008000400000408000100000001000000FF
:1027C0000100000001000000010000000100000005
:1027D00001000000010000000100000001000000F5
:1027E00001000000010000000100000001000000E5
:1027F0000100000001000000F4010000F4010000ED
:10280000F4010000F40100000100000001000000DC
:102810000B000000050000000200000003000000A3
:102820000024F40001000100100001000200020079
:102830000008014000080140000C01400010014068
:0828400010000000010000007F
:040000050800108D52
:00000001FF
